:100E1E00D2B6C2B77D02E4FF120DA07D027F011291
:100E2E000DA0120B21120EF5120C1A7FBC7E0212AF
:050E3E000E6102089B9B
:100EC900120E1E120CEF1209F8120588120D3012BB
:070ED9000F871206FD80EFF8
:100E4300D3EF9400EE940040147D0A7C00ED1D70F6
:0D0E5300011CED4C70F7EF1F70E61E80E3F0
:010E6000226F
:100F1C00AD071FED600BE4FEEEC3940D50F20E8096
:010F2C00F7CD
:010F2D0022A1
:100E6100D3EF9400EE940040147D7D7C00ED1D7065
:0D0E7100011CED4C70F7EF1F70E61E80E3D2
:010E7E002251
:100DA000EF146018047029ED24FE600A14600A2410
:100DB00002701DC29022D29022B29022ED24FE60D9
:100DC0000A14600A24027008C29122D29122B291C0
:010DD0002200
:100CEF00E4F51A120D127F327E00120E61120D12F0
:100CFF00051AE51AC3940340EA7D02E4FF120DA022
:030D0F00020DA032
:100D12007D03E4FF120DA00F120DA07F327E0012A0
:0E0D22000E617D03E4FF120DA00F120DA02242
:100F8700E50B70047D0280037D01E4FF120DA022B2
:030EB10001320209
:0B0FA400AE1CAF1D7C037DE8020300C3
:100E7F00C2B5C2B48F807F057E00120E61D2B47FDF
:090E8F00057E00120E61C2B422BE
:100E9800D2B5C2B48F807F057E00120E61D2B47FB6
:090EA800057E00120E61C2B422A5
:050006007F01020E7FE6
:100EF500C2B47F38120E7F7F0C120E7F7F06120E52
:040F05007F02000661
:080AC7008F1C8B1D8A1E891F84
:100ACF00ED24FE600904700EE51C24808004E51CF3
:100ADF0024C0FF120E7FE4F520F521AB1DAA1EA93D
:100AEF001F120EE0C3E5219FE5209E5024AB1DAAE7
:100AFF001EA91F8521828520831202D3FF120E9813
:100B0F007F0A7E00120E430521E52170CE0520805D
:010B1F00CA0B
:010B200022B2
:100A68008F1B8C1C8D1DEB24FE600904700EE51B8A
:100A780024808004E51B24C0FF120E7F120FA4EF10
:100A88002430FF120E98120FA47F64120AB07C0063
:100A98007D641203007F0A120AB07C007D0A1203EB
:100AA80000ED2430FF020E987E00CFCDCFCECCCE05
:0F0AB800120300EF2430FF120E98AE1CAF1D2268
:030EB40001310009
:0B0FAF0085A0305330F0E53064F022E4
:1004700075A0FE120FAF603A12055F603512057B62
:100480002482601B24C0601224E0600924F07012F2
:10049000751A01800D751A028008751A038003759C
:1004A0001A04E53064F0600A12054F7F01120DA0B6
:1004B00080F075A0FD120FAF603A12055F60351233
:1004C000057B2483601B24C0601224E0600924F0B3
:1004D0007012751A05800D751A068008751A078046
:1004E00003751A08E53064F0600A12054F7F0112A7
:1004F0000DA080F075A0FB120FAF60247F0A7E0074
:10050000120E61E53064F0601785A0307D0180092E
:10051000E53064F0600A12056B7F01120DA080F0D7
:1005200075A0F7120FAF60247F0A7E00120E61E5FE
:100530003064F0601785A0307D018009E53064F0FB
:0E054000600A12056B7F01120DA080F0AF1A49
:10054E002285A0305330F07F327E00120E617D0284
:10055E00227F0A7E00120E61E53064F02285A03003
:10056E005330F07F327E00120E617D022285A03064
:0A057E007D017F01120DA0E530227F
:1009F800120470EF14B408005065900A1075F003E3
:100A0800A4C58325F0C58373020A28020A2B020AAB
:100A18002E020A31020A34020A42020A51020A5B11
:100A2800020DD1020F76C2B722D2B722120F09EFF8
:100A38002509F509EE3508F50822120F09C3E5095D
:100A48009FF509E5089EF5082274F4250DF50D7447
:0F0A5800018008740C250DF50D74FE350CF50C9E
:010A6700226C
:030EB7000129FF0F
:030013000206439F
:10064300C0E0C0F0C083C082C0D075D000C000C07D
:0D06530001C002C003C004C005C006C007FE
:10066000751900E4FD7F01120F647F0F120F1C301B
:10067000B302806720B3077F01120F1C80F6751745
:100680000075180020B3FD30B3FD30B3107F0112A8
:100690000F1C0519E519C3941E40EF803E742225F6
:1006A00017F8C000E6C313D000F6E519C39408405C
:1006B0000974222517F8E64480F67519000518E537
:1006C00018C3940840BE0517E517C3940440B2E56B
:1006D00025F46524600280038524297D017F0112B1
:0206E0000F64A5
:1006E200D007D006D005D004D003D002D001D0006C
:0B06F200D0D0D082D083D0F0D0E03216
:10058800751AFFE51A6529700302064285291A7D46
:10059800017F01120DA0E51A12036306180805F57C
:1005A8000C05F10D05E71605F91805EC1906221CCE
:1005B80005D84005DD4505E24605CE4705D34A0680
:1005C800085E0000062E120C1A805B12089B8056EB
:1005D800120C668051120F97804C120DF88047124A
:1005E8000DD18042120F76803DC2B78039D2B780D4
:1005F80035120F09EF2509F509EE3508F5088026AB
:10060800120F09C3E5099FF509E5089EF50880164C
:1006180074F4250DF50D74018008740C250DF50D85
:1006280074FE350CF50C751AFF7529FF7F327E00B4
:0A063800120E617D027F01120DA079
:010642002295
:100D6B00AE1BAF1CAB07AA06E4C39BFFE49AFE7451
:100D7B00019400FDE49400FCE4FB7A01F9F8020C09
:100D8B00ABE4FDFF120F52D2B622AE0CAF0DAB0788
:050D9B00AA06F9F82290
:060FC500EF24FF92AF22B1
:03000E008F8922B5
:100F2E00EF7006ED24FF928822BF0105ED24FF929B
:020F3E008A2205
:100F4000EF7006ED24FF92A922BF0105ED24FF9268
:020F5000AB22D2
:100F5200EF7006ED24FF928C22BF0105ED24FF9273
:020F62008E22DD
:100F6400EF7006ED24FF92A822BF0105ED24FF9245
:020F7400AA22AF
:060914008F1A8C1B8D1CE4
:10091A00EB14601D14602F14604024037048C3E474
:10092A00951CFF7401951BF51D8F1EF5838F828020
:10093A0035C3E4951CFD7420951BF51E751D0075C5
:10094A0083008D828020120D6B8E1D8F1E120D6BFF
:10095A00AE02AF038E838F82800C851B1D851C1E01
:10096A00851B83851C82E51A7007851E8C85828A01
:0C097A0022E51AB40106851E8D85828BD3
:01098600224E
:100B79007F107E27FC120CABEF24FFF512EE34FF39
:020B8900F51164
:100B8B00E510146015047036AC08AD09E4120219B7
:100B9B007BE47A38798E78418010AC08AD09E41289
:100BAB0002197B167A7B79D6784212010EE4FBFA96
:0F0BBB00798078BF12001D1202528E0E8F0F220A
:100B21007F0112000E7B027D327C001F1209147BB3
:100B3100037DFD7C007F011209147F01120FC57D29
:100B4100011F120F2E120F401D120F520D120F64B2
:100B51000F120F52120F2E120F64E4F513F514F554
:100B61000CF50DF508F509F515F516120D951D1283
:080B71000B79E4F50BF50A22F3
:100F7600120D8CE4F515F516850E13850F14F50B79
:010F86002248
:100DD100E50D450C6020E5094508601AE4F515F5B7
:100DE10016F513F514120D95FD120B79750B017D96
:070DF10001E4FF120F522282
:03000B00020BCA1B
:100BCA00C0E0C0D075D000C005C007758CFF758A1B
:100BDA00CEE516B51229E515B51124751500751659
:100BEA0000B2B6E514B50F0FE513B50E0AE50A70A3
:100BFA0006120D8D750B000514E514700205130518
:100C0A0016E51670020515D007D005D0D0D0E0320F
:0300030002081FD1
:10081F00C0E0C0F0C083C082C0D075D000C000C09F
:10082F0001C002C003C004C005C006C007E4FDFF3D
:10083F00120F6420B2347F0A7E00120E6120B22A9A
:10084F007D017F01120DA0120D8C7515007516001C
:10085F00850E13850F14750B0030B2FD7F327E00AD
:10086F00120E617D027F01120DA07D01E4FF120FB8
:10087F0064D007D006D005D004D003D002D001D069
:0C088F0000D0D0D082D083D0F0D0E03276
:0D0F9700E50A70047F0180027F008F0A22AE
:100DF800E51014601104701D7510017BFF7A0979E4
:100E0800A67D02E4800BE4F5107BFF7A0979A27DC8
:060E180002FF120AC722CE
:100D3000D3E5099400E50894005002800BD3E5093F
:100D4000940FE50894274005E4F508F509D3E50D6F
:100D50009400E50C94005002800BD3E50D94A0E5BF
:0B0D60000C940F4005E4F50CF50D228B
:100987004D533A00576F726B0053746577004449B3
:10099700523A00506F73004E65670052413A005259
:1009A7004D3A0052533A00542E574B564552002D9C
:1009B7002D2D2D2D2D2D2D2D2D2D2D2D2D2D3E007C
:1009C7003C2F4D41545249583E00436F64652042C5
:1009D70079004E656F6420416E6465726A6F6E00C0
:1009E700537465704D6F746F72436F6E74726F6C72
:0109F70000FF
:0E0EBA00012A00012B00022C0000022E000075
:0B0FBA007BFF7A0979E77D02E4FF224B
:100C1A001200067532017BFF7A0979AE7D017F05E4
:100C2A00120AC7120FBA120C567A0979C77D017FC8
:100C3A0004120C567A0979D17D01E4FF120AC77BA6
:100C4A00FF7A0979D97D027F03020AC7120AC77F90
:0C0C5A00F47E01120E611200067BFF22E6
:10089B001200067532027BFF7A0979877D01E4FF2E
:1008AB00120AC77A0979907F0312090C7A09799594
:1008BB007F0912090C7BFF7A09799A7D017F0D1252
:1008CB000AC7E510600B1470157BFF7A0979A680B7
:1008DB00067BFF7A0979A27D02E4FF120AC77B022D
:1008EB00AD09AC087F03120A687BFF7A0979AA7DF0
:1008FB00027F09120AC77B02AD0DAC0C7F0C020AFA
:09090B00687BFF7D01120AC7227E
:100C6600120006753203E4F51B7BFF7A0979B67D1F
:100C760001E4FF120AC77BFF7A0979AE7D01AF1B3B
:100C8600120AC7120FBA120AC77FF47E01120E614A
:100C9600E529B44009051BE51BC3941040CBE529A3
:050CA600644060C22261
:1006FD00E53264026003020792E52A650B602985E5
:10070D000B2AE52A700E7D02FF120DA07BFF7A09E0
:10071D007990800D7D01E4FF120DA07BFF7A0979A0
:10072D008B7D017F03120AC7A2B7E433652B601BD3
:10073D00A2B7E433F52B7BFF70067A09799A800412
:10074D007A09799E7D017F0D120AC7E52D65097025
:10075D0004E52C6508601185082C85092D7B02ADFB
:10076D0009AC087F03120A68E52F650D7004E52EAC
:10077D00650C6011850C2E850D2F7B02AD2FAC2ED7
:05078D007F0C120A6858
:010792002244
:100F0900E5101460030480067E007F0580047E00DE
:020F19007F1E39
:010F1B0022B3
:100016000202BEE86480F8E933E83360110460F058
:10002600ED33EC337009E8FCE9FDEAFEEBFF220450
:1000360060DED3EB9FEA9EE99DE8C2E78CF0C2F74B
:1000460095F0400CE8CCF8E9CDF9EACEFAEBCFFB17
:1000560012028985D0F05804700320D5B3E80470E5
:10006600075002B2D50202C892D5EC0460F7E4CC80
:10007600C0E0C398F8603B94186008400DD0E0FBE0
:100086000202A0E4FBFAC9FC8028E830E406E4C9D1
:10009600FBE4CAFCE830E305E4C9CACBFCE8540734
:1000A6006010F8C3E913F9EA13FAEB13FBEC13FC3F
:1000B600D8F130F52FC3E49CFCEF9BFFEE9AFEEDE2
:1000C60099FDD0E0FBEF4E4D4C701222DB0302028D
:1000D600C5EC2CFCEF33FFEE33FEED33FDED30E7E0
:1000E600EB0202A0EF2BFFEE3AFEED39FDD0E0FB6E
:1000F60050130BBB00030202C8ED13FDEE13FEEF17
:0801060013FFEC13FC0202A040
:10010E00EC4D6011E8497017ED33EC3304600DE4EB
:10011E00FCFFFEFD22E933E8330470F80202BE1242
:10012E00028958046009E4CC248150062850090243
:10013E0002C82840030202C5C0E0EB4A7044B980F1
:10014E0006D0E0FB0202B4EF4E701CBD8008EBFF40
:10015E00EAFEE9FD80EBE98DF0A4FEE5F00201F781
:10016E00E9CDF9EAFEEBFFEF89F0A4FCE5F0CE89CC
:10017E00F0A42EFFE435F0CD89F0A42DFEE435F089
:10018E008067EF4E7005BD80D780C3EF8BF0A4ACB7
:10019E00F0EE8BF0A42CFCE435F0F8EF8AF0A42CF2
:1001AE00E5F038FCE433CB8DF0A42CFCE5F03BF805
:1001BE00EE8AF0A42CFCE5F038F8E433CF89F0A4F5
:1001CE002CFCE5F038CF3400CE89F0A42FFFE5F0FB
:1001DE003EFEE433C98DF0A42EFEE5F039CD8AF053
:1001EE00A42FFFE5F03EFEE43DFD33D0E0FB5007CB
:1001FE000BBB000F0202C8EC2CFCEF33FFEE33FEFC
:06020E00ED33FD0202A029
:1002140075F020800E75F010800575F0087D007E65
:10022400007F003392D530D503120355EC334010D0
:10023400EF33FFEE33FEED33FDEC33FCD5F0ED226E
:0E024400E5F0247EA2D513CC92E7CDCEFF22AA
:10025200EDD2E7CD33EC3392D524814006E4FFFEA4
:10026200FDFC22FCE4CFCECDCC24E0501174FF8003
:10027200EDC3CC13CCCD13CDCE13CECF13CF0470A0
:07028200F030D5DE02035548
:10028900E9D2E7C933E833F892D5EDD2E7CD33ECBB
:0702990033FC5002B2D52234
:1002A000EC30E7100FBF000C0EBE00080DBD0004BF
:1002B0000BEB6014A2D5EB13FCED92E7FD2274FF6B
:1002C000FCFDFEFF22E480F8A2D574FF13FC7D80C4
:0302D000E480EFD8
:0300000002079361
:0C079300787FE4F6D8FD7581320207DAA9
:1002D300BB010CE58229F582E5833AF583E02250E0
:1002E30006E92582F8E622BBFE06E92582F8E2222A
:0D02F300E58229F582E5833AF583E4932244
:10030000BC000BBE0029EF8DF084FFADF022E4CCE1
:10031000F875F008EF2FFFEE33FEEC33FCEE9DECAA
:10032000984005FCEE9DFE0FD5F0E9E4CEFD22EDF0
:10033000F8F5F0EE8420D21CFEADF075F008EF2F3A
:10034000FFED33FD4007985006D5F0F222C398FD2B
:050350000FD5F0EA22C8
:100CAB00C2D5E830E70FB2D5E4C39BFBE49AFAE474
:100CBB0099F9E498F8EC30E717B2D5120CE112036E
:100CCB00DEE4C39BFBE49AFAE499F9E498F8800319
:100CDB001203DE30D50DE4C39FFFE49EFEE49DFDC1
:040CEB00E49CFC2267
:0E035500C3E49FFFE49EFEE49DFDE49CFC22B9
:10036300D083D082F8E4937012740193700DA3A329
:1003730093F8740193F5828883E47374029368603D
:06038300EFA3A3A380DF3D
:100EE000E4FFFE120389600C0FEF70010E09E97038
:050EF000F20A80EF2270
:10079F00020EC9E493A3F8E493A34003F68001F299
:1007AF0008DFF48029E493A3F85407240CC8C3335B
:1007BF00C4540F4420C8834004F456800146F6DF2A
:1007CF00E4800B0102040810204080900EB1E47EFB
:1007DF00019360BCA3FF543F30E509541FFEE4931F
:1007EF00A360010ECF54C025E060A840B8E493A3E6
:1007FF00FAE493A3F8E493A3C8C582C8CAC583CA11
:10080F00F0A3C8C582C8CAC583CADFE9DEE780BEC8
:010EC8000029
:10038900BB010689828A83E0225002E722BBFE0272
:09039900E32289828A83E49322A5
:1003A20075F008758200EF2FFFEE33FECD33CDCC12
:1003B20033CCC58233C5829BED9AEC99E582984095
:1003C2000CF582EE9BFEED9AFDEC99FC0FD5F0D672
:1003D200E4CEFBE4CDFAE4CCF9A88222B800C1B99C
:1003E2000059BA002DEC8BF084CFCECDFCE5F0CBDA
:1003F200F97818EF2FFFEE33FEED33FDEC33FCEB13
:1004020033FB10D703994004EB99FB0FD8E5E4F9CD
:10041200FA227818EF2FFFEE33FEED33FDEC33FCBA
:10042200C933C910D7059BE99A4007EC9BFCE99AAE
:10043200F90FD8E0E4C9FAE4CCFB2275F010EF2FF3
:10044200FFEE33FEED33FDCC33CCC833C810D707F3
:100452009BEC9AE899400AED9BFDEC9AFCE899F82E
:0E0462000FD5F0DAE4CDFBE4CCFAE4C8F922C1
:00000001FF
