:100DF200D2B6C2B77D02E4FF120DC17D027F01129D
:100E02000DC1120B36120EEB120BE17F207E031284
:080E12000E8612090B020D41CE
:0E0F6C00120DF2120A6812058812078980F52C
:100E6800D3EF9400EE940040147D0A7C00ED1D70D1
:0D0E7800011CED4C70F7EF1F70E61E80E3CB
:010E8500224A
:100F1200AD071FED600BE4FEEEC3940D50F20E80A0
:010F2200F7D7
:010F230022AB
:100E8600D3EF9400EE940040147D7D7C00ED1D7040
:0D0E9600011CED4C70F7EF1F70E61E80E3AD
:010EA300222C
:100DC100EF146018047029ED24FE600A14600A24EF
:100DD10002701DC29022D29022B29022ED24FE60B8
:100DE1000A14600A24027008C29122D29122B2919F
:010DF10022DF
:100D4100E4F51A120D647F327E00120E86120D64D4
:100D5100051AE51AC3940340EA7D02E4FF120DC1AE
:030D6100020DC1BF
:100D64007D03E4FF120DC10F120DC17F327E00120C
:0E0D74000E867D03E4FF120DC10F120DC12289
:030FA800012D0216
:0B0F8700AE1CAF1D7C037DE8020300E0
:100EA400C2B5C2B48F807F057E00120E86D2B47F95
:090EB400057E00120E86C2B42274
:100EBD00D2B5C2B48F807F057E00120E86D2B47F6C
:090ECD00057E00120E86C2B4225B
:050006007F01020EA4C1
:100EEB00C2B47F38120EA47F0C120EA47F06120E12
:040EFB00A402000647
:0A0AD8008F1C8D1D8B1E8A1F8920C4
:100AE200E51DB40106E51C24808009E51DB4020859
:100AF200E51C24C0FF120EA4E4F521F522AB1EAAC8
:100B02001FA920120ED6C3E5229FE5219E5024ABD9
:100B12001EAA1FA9208522828521831202D3FF12D9
:100B22000EBD7F057E00120E680522E52270CE05FD
:030B32002180CA55
:010B3500229D
:10088F008F1B8C1C8D1D8B1EE51EB40106E51B24D2
:10089F00808009E51EB40208E51B24C0FF120EA4D8
:1008AF00120F87EF2430FF120EBD120F877F6412D5
:1008BF0008F47C007D641203007F0A1208F47C00A8
:1008CF007D0A120300ED2430FF120EBDE51EB401A8
:1008DF0006E51B24808009E51EB40208E51B24C031
:1008EF00FF120EA4227E00CFCDCFCECCCE120300AE
:0C08FF00EF2430FF120EBDAE1CAF1D2216
:030FAB00012C0016
:0B0F920085A02B532BF0E52B64F02210
:1004700075A0FE120F92603A12055F603512057B7F
:100480002482601B24C0601224E0600924F07012F2
:10049000751A01800D751A028008751A038003759C
:1004A0001A04E52B64F0600A12054F7F01120DC19A
:1004B00080F075A0FD120F92603A12055F60351250
:1004C000057B2483601B24C0601224E0600924F0B3
:1004D0007012751A05800D751A068008751A078046
:1004E00003751A08E52B64F0600A12054F7F0112AC
:1004F0000DC180F075A0FB120F9260247F0A7E0070
:10050000120E86E52B64F0601785A02B7D01800913
:10051000E52B64F0600A12056B7F01120DC180F0BB
:1005200075A0F7120F9260247F0A7E00120E86E5F6
:100530002B64F0601785A02B7D018009E52B64F00A
:0E054000600A12056B7F01120DC180F0AF1A28
:10054E002285A02B532BF07F327E00120E867D0269
:10055E00227F0A7E00120E86E52B64F02285A02BE8
:10056E00532BF07F327E00120E867D022285A02B49
:0A057E007D017F01120DC1E52B2263
:100A6800120470EF14B408005065900A8075F00302
:100A7800A4C58325F0C58373020A98020A9B020A5B
:100A88009E020AA1020AA4020AB2020AC1020ACB01
:100A9800020CFE020E1AC2B722D2B722120EFFEFC4
:100AA8002509F509EE3508F50822120EFFC3E509F8
:100AB8009FF509E5089EF5082274F4250DF50D74D7
:0F0AC800018008740C250DF50D74FE350CF50C2E
:010AD70022FC
:030FAE00012AFF16
:030013000206439F
:10064300C0E0C0F0C083C082C0D075D000C000C07D
:0D06530001C002C003C004C005C006C007FE
:10066000751900E4FD7F01120F5A7F0F120F12302F
:10067000B302806720B3077F01120F1280F675174F
:100680000075180020B3FD30B3FD30B3107F0112A8
:100690000F120519E519C3941E40EF803E742325FF
:1006A00017F8C000E6C313D000F6E519C39408405C
:1006B0000974232517F8E64480F67519000518E536
:1006C00018C3940840BE0517E517C3940440B2E56B
:1006D00026F465256002800385252A7D017F0112AD
:0206E0000F5AAF
:1006E200D007D006D005D004D003D002D001D0006C
:0B06F200D0D0D082D083D0F0D0E03216
:10058800751AFFE51A652A7003020642852A1A7D44
:10059800017F01120DC1E51A12036306180805F55B
:1005A8000C05F10D05E71605F91805EC1906221CCE
:1005B80005D84005DD4505E24605CE4705D34A0680
:1005C800085E0000062E120BE1805B12090B8056B4
:1005D800120C758051120F7A804C120E428047120D
:1005E8000CFE8042120E1A803DC2B78039D2B78005
:1005F80035120EFFEF2509F509EE3508F5088026B6
:10060800120EFFC3E5099FF509E5089EF508801657
:1006180074F4250DF50D74018008740C250DF50D85
:1006280074FE350CF50C751AFF752AFF7F327E00B3
:0A063800120E867D027F01120DC133
:010642002295
:100C2D00AE1BAF1CAB07AA06E4C39BFFE49AFE7490
:100C3D00019400FDE49400FCE4FB7A01F9F8020C48
:100C4D00BA7F107E27FC120CBAEF24FFF512EE349A
:100C5D00FFF51122E4FDFF120F48D2B622AE0CAF04
:080C6D000DAB07AA06F9F822FD
:060FB200EF24FF92AF22C4
:03000E008F8922B5
:100F2400EF7006ED24FF928822BF0105ED24FF92A5
:020F34008A220F
:100F3600EF7006ED24FF92A922BF0105ED24FF9272
:020F4600AB22DC
:100F4800EF7006ED24FF928C22BF0105ED24FF927D
:020F58008E22E7
:100F5A00EF7006ED24FF92A822BF0105ED24FF924F
:020F6A00AA22B9
:060984008F1A8C1B8D1C74
:10098A00EB14601D14602F14604024037048C3E404
:10099A00951CFF7401951BF51D8F1EF5838F8280B0
:1009AA0035C3E4951CFD7420951BF51E751D007555
:1009BA0083008D828020120C2D8E1D8F1E120C2D0D
:1009CA00AE02AF038E838F82800C851B1D851C1E91
:1009DA00851B83851C82E51A7007851E8C85828A91
:0C09EA0022E51AB40106851E8D85828B63
:0109F60022DE
:100B36007F0112000E7B027D327C001F1209847B2E
:100B4600037DFD7C007F011209847F01120FB27DB7
:100B5600011F120F24120F361D120F480D120F5AC5
:100B66000F120F48120F24120F5AE4F513F514F55D
:100B76000CF50DF508F509F515F516120C6A1D129A
:0B0B86000C4E120D82E4F50BF50A2264
:100E1A00120C61E4F515F516850E13850F14F50B02
:100E2A007D02120DC1E52DB4020D7BFF7A0A79000D
:080E3A007D017F03120AD8229A
:100CFE00E50D450C603CE50945086036E4F515F553
:100D0E0016F513F514120C6AFD120C4E120D827D9F
:100D1E0001E4FF120DC1750B01E52DB4020D7BFF31
:100D2E007A0979FB7D017F03120AD87D01E4FF1257
:030D3E000F482239
:03000B00020B9154
:100B9100C0E0C0D075D000C005C007758CFF758A54
:100BA100CEE516B51229E515B51124751500751692
:100BB10000B2B6E514B50F0FE513B50E0AE50A70DC
:100BC10006120C62750B000514E51470020513057D
:100BD10016E51670020515D007D005D0D0D0E03249
:0300030002080DE3
:10080D00C0E0C0F0C083C082C0D075D000C000C0B1
:10081D0001C002C003C004C005C006C007E4FDFF4F
:10082D00120F5A20B23A7F0A7E00120E8620B23085
:10083D007D017F01120DC1120C6175150075160039
:10084D00850E13850F14750B007D02E4120DC1305A
:10085D00B2FD7F327E00120E867D027F01120DC128
:10086D007D01E4FF120F5AD007D006D005D004D079
:10087D0003D002D001D000D0D0D082D083D0F0D020
:02088D00E03257
:0D0F7A00E50A70047F0180027F008F0A22CB
:100E4200E51014601104701D7510017BFF7A0A7998
:100E5200167D02E4800BE4F5107BFF7A0A79127D9D
:060E620002FF120AD82273
:100D8200E510146015047036AC08AD09E4120219BE
:100D92007BE47A38798E78418010AC08AD09E41290
:100DA20002197B7D7AD67987784212010EE4FBFA2A
:0F0DB200798078BF12001D1202528E0E8F0F2211
:100EFF00E5101460030480067E007F0580047E00E9
:020F0F007F1E43
:010F110022BD
:1009F7004D533A00576F726B005374657700444943
:100A0700523A00506F73004E65670052413A0052E8
:100A17004D3A0052533A00542E574B564552002D2B
:100A27002D2D2D2D2D2D2D2D2D2D2D2D2D2D3E000B
:100A37003C2F4D41545249583E00436F6465204254
:100A470079004E656F6420416E6465726A6F6E004F
:100A5700537465704D6F746F72436F6E74726F6C01
:010A6700008E
:0B0F9D007BFF7A0A79577D02E4FF22F7
:100BE100120006752D017BFF7A0A791E7D017F05B2
:100BF100120AD8120F9D120C1D7A0A79377D017FD6
:100C010004120C1D7A0A79417D01E4FF120AD87B96
:100C1100FF7A0A79497D027F03020AD8120AD87F36
:0C0C2100F47E01120E861200067BFF22FA
:10090B00120006752D027BFF7A0979F77D01E4FF52
:10091B00120AD87A0A79007F0312097C7A0A7905C0
:10092B007F0912097C7BFF7A0A790A7D017F0D1200
:10093B000AD8E510600B1470157BFF7A0A791680C4
:10094B00067BFF7A0A79127D02E4FF120AD87B023A
:10095B00AD09AC087F0312088F7BFF7A0A791A7DE9
:10096B00027F09120AD87B02AD0DAC0C7F0C02087A
:09097B008F7BFF7D01120AD822D6
:100C7500120006752D03E4F51B7BFF7A0A79267DA4
:100C850001E4FF120AD87BFF7A0A791E7D01AF1BAA
:100C9500120AD8120F9D120AD87FF47E01120E8611
:100CA500E52AB44009051BE51BC3941040CBE52A92
:050CB500644060C22252
:10078900D3E5099400E50894005002800BD3E509EC
:10079900940FE50894274005E4F508F509D3E50D1C
:1007A9009400E50C94005002800BD3E50D94A0E56C
:1007B9000C940F4005E4F50CF50DE52D640270432A
:1007C900E50B7BFF70067A0A790080047A0979FBC8
:1007D9007D017F03120AD87BFF20B7067A0A790ABE
:1007E90080047A0A790E7D017F0D120AD87B02AD49
:1007F90009AC087F0312088F7B02AD0DAC0C7F0C8E
:0408090012088F2220
:100016000202BEE86480F8E933E83360110460F058
:10002600ED33EC337009E8FCE9FDEAFEEBFF220450
:1000360060DED3EB9FEA9EE99DE8C2E78CF0C2F74B
:1000460095F0400CE8CCF8E9CDF9EACEFAEBCFFB17
:1000560012028985D0F05804700320D5B3E80470E5
:10006600075002B2D50202C892D5EC0460F7E4CC80
:10007600C0E0C398F8603B94186008400DD0E0FBE0
:100086000202A0E4FBFAC9FC8028E830E406E4C9D1
:10009600FBE4CAFCE830E305E4C9CACBFCE8540734
:1000A6006010F8C3E913F9EA13FAEB13FBEC13FC3F
:1000B600D8F130F52FC3E49CFCEF9BFFEE9AFEEDE2
:1000C60099FDD0E0FBEF4E4D4C701222DB0302028D
:1000D600C5EC2CFCEF33FFEE33FEED33FDED30E7E0
:1000E600EB0202A0EF2BFFEE3AFEED39FDD0E0FB6E
:1000F60050130BBB00030202C8ED13FDEE13FEEF17
:0801060013FFEC13FC0202A040
:10010E00EC4D6011E8497017ED33EC3304600DE4EB
:10011E00FCFFFEFD22E933E8330470F80202BE1242
:10012E00028958046009E4CC248150062850090243
:10013E0002C82840030202C5C0E0EB4A7044B980F1
:10014E0006D0E0FB0202B4EF4E701CBD8008EBFF40
:10015E00EAFEE9FD80EBE98DF0A4FEE5F00201F781
:10016E00E9CDF9EAFEEBFFEF89F0A4FCE5F0CE89CC
:10017E00F0A42EFFE435F0CD89F0A42DFEE435F089
:10018E008067EF4E7005BD80D780C3EF8BF0A4ACB7
:10019E00F0EE8BF0A42CFCE435F0F8EF8AF0A42CF2
:1001AE00E5F038FCE433CB8DF0A42CFCE5F03BF805
:1001BE00EE8AF0A42CFCE5F038F8E433CF89F0A4F5
:1001CE002CFCE5F038CF3400CE89F0A42FFFE5F0FB
:1001DE003EFEE433C98DF0A42EFEE5F039CD8AF053
:1001EE00A42FFFE5F03EFEE43DFD33D0E0FB5007CB
:1001FE000BBB000F0202C8EC2CFCEF33FFEE33FEFC
:06020E00ED33FD0202A029
:1002140075F020800E75F010800575F0087D007E65
:10022400007F003392D530D503120355EC334010D0
:10023400EF33FFEE33FEED33FDEC33FCD5F0ED226E
:0E024400E5F0247EA2D513CC92E7CDCEFF22AA
:10025200EDD2E7CD33EC3392D524814006E4FFFEA4
:10026200FDFC22FCE4CFCECDCC24E0501174FF8003
:10027200EDC3CC13CCCD13CDCE13CECF13CF0470A0
:07028200F030D5DE02035548
:10028900E9D2E7C933E833F892D5EDD2E7CD33ECBB
:0702990033FC5002B2D52234
:1002A000EC30E7100FBF000C0EBE00080DBD0004BF
:1002B0000BEB6014A2D5EB13FCED92E7FD2274FF6B
:1002C000FCFDFEFF22E480F8A2D574FF13FC7D80C4
:0302D000E480EFD8
:030000000206FDF8
:0C06FD00787FE4F6D8FD75812D020744DB
:1002D300BB010CE58229F582E5833AF583E02250E0
:1002E30006E92582F8E622BBFE06E92582F8E2222A
:0D02F300E58229F582E5833AF583E4932244
:10030000BC000BBE0029EF8DF084FFADF022E4CCE1
:10031000F875F008EF2FFFEE33FEEC33FCEE9DECAA
:10032000984005FCEE9DFE0FD5F0E9E4CEFD22EDF0
:10033000F8F5F0EE8420D21CFEADF075F008EF2F3A
:10034000FFED33FD4007985006D5F0F222C398FD2B
:050350000FD5F0EA22C8
:100CBA00C2D5E830E70FB2D5E4C39BFBE49AFAE465
:100CCA0099F9E498F8EC30E717B2D5120CF0120350
:100CDA00DEE4C39BFBE49AFAE499F9E498F880030A
:100CEA001203DE30D50DE4C39FFFE49EFEE49DFDB2
:040CFA00E49CFC2258
:0E035500C3E49FFFE49EFEE49DFDE49CFC22B9
:10036300D083D082F8E4937012740193700DA3A329
:1003730093F8740193F5828883E47374029368603D
:06038300EFA3A3A380DF3D
:100ED600E4FFFE120389600C0FEF70010E09E97042
:050EE600F20A80EF227A
:10070900020F6CE493A3F8E493A34003F68001F28B
:1007190008DFF48029E493A3F85407240CC8C333F1
:10072900C4540F4420C8834004F456800146F6DFC0
:10073900E4800B0102040810204080900FA8E47E99
:10074900019360BCA3FF543F30E509541FFEE493B5
:10075900A360010ECF54C025E060A840B8E493A37C
:10076900FAE493A3F8E493A3C8C582C8CAC583CAA7
:10077900F0A3C8C582C8CAC583CADFE9DEE780BE5F
:010FB100003F
:10038900BB010689828A83E0225002E722BBFE0272
:09039900E32289828A83E49322A5
:1003A20075F008758200EF2FFFEE33FECD33CDCC12
:1003B20033CCC58233C5829BED9AEC99E582984095
:1003C2000CF582EE9BFEED9AFDEC99FC0FD5F0D672
:1003D200E4CEFBE4CDFAE4CCF9A88222B800C1B99C
:1003E2000059BA002DEC8BF084CFCECDFCE5F0CBDA
:1003F200F97818EF2FFFEE33FEED33FDEC33FCEB13
:1004020033FB10D703994004EB99FB0FD8E5E4F9CD
:10041200FA227818EF2FFFEE33FEED33FDEC33FCBA
:10042200C933C910D7059BE99A4007EC9BFCE99AAE
:10043200F90FD8E0E4C9FAE4CCFB2275F010EF2FF3
:10044200FFEE33FEED33FDCC33CCC833C810D707F3
:100452009BEC9AE899400AED9BFDEC9AFCE899F82E
:0E0462000FD5F0DAE4CDFBE4CCFAE4C8F922C1
:00000001FF
