:100E0D00D2B6C2B77D02E4FF120DDC7D027F011266
:100E1D000DDC120984120F06120CC67F207E031200
:080E2D000EA112090B020D9B3E
:0E0F8700120E0D120AE012058812078980F57D
:100E8300D3EF9400EE940040147D0A7C00ED1D70B6
:0D0E9300011CED4C70F7EF1F70E61E80E3B0
:010EA000222F
:100F2D00AD071FED600BE4FEEEC3940D50F20E8085
:010F3D00F7BC
:010F3E002290
:100EA100D3EF9400EE940040147D7D7C00ED1D7025
:0D0EB100011CED4C70F7EF1F70E61E80E392
:010EBE002211
:100DDC00EF146018047029ED24FE600A14600A24D4
:100DEC0002701DC29022D29022B29022ED24FE609D
:100DFC000A14600A24027008C29122D29122B29184
:010E0C0022C3
:100D9B00E4F51A120DBE7F327E00120EA1120DBEAB
:100DAB00051AE51AC3940340EA7D02E4FF120DDC39
:030DBB00020DDC4A
:100DBE007D03E4FF120DDC0F120DDC7F327E00127C
:0E0DCE000EA17D03E4FF120DDC0F120DDC22DE
:030FC300012D02FB
:0B0FA200AE1CAF1D7C037DE8020300C5
:100EBF00C2B5C2B48F807F057E00120EA1D2B47F5F
:090ECF00057E00120EA1C2B4223E
:100ED800D2B5C2B48F807F057E00120EA1D2B47F36
:090EE800057E00120EA1C2B42225
:050006007F01020EBFA6
:100F0600C2B47F38120EBF7F0C120EBF7F06120EC0
:040F1600BF02000610
:0A0C18008F1C8D1D8B1E8A1F892082
:100C2200E51DB40106E51C24808009E51DB4020817
:100C3200E51C24C0FF120EBFE4F521F522AB1EAA6B
:100C42001FA920120EF1C3E5229FE5219E5024AB7D
:100C52001EAA1FA9208522828521831202D3FF1298
:100C62000ED87F057E00120E830522E52270CE0586
:030C72002180CA14
:010C7500225C
:10088F008F1B8C1C8D1D8B1EE51EB40106E51B24D2
:10089F00808009E51EB40208E51B24C0FF120EBFBD
:1008AF00120FA2EF2430FF120ED8120FA27F641284
:1008BF0008F47C007D641203007F0A1208F47C00A8
:1008CF007D0A120300ED2430FF120ED8E51EB4018D
:1008DF0006E51B24808009E51EB40208E51B24C031
:1008EF00FF120EBF227E00CFCDCFCECCCE12030093
:0C08FF00EF2430FF120ED8AE1CAF1D22FB
:030FC600012C00FB
:0B0FAD0085A02B532BF0E52B64F022F5
:1004700075A0FE120FAD603A12055F603512057B64
:100480002482601B24C0601224E0600924F07012F2
:10049000751A01800D751A028008751A038003759C
:1004A0001A04E52B64F0600A12054F7F01120DDC7F
:1004B00080F075A0FD120FAD603A12055F60351235
:1004C000057B2483601B24C0601224E0600924F0B3
:1004D0007012751A05800D751A068008751A078046
:1004E00003751A08E52B64F0600A12054F7F0112AC
:1004F0000DDC80F075A0FB120FAD60247F0A7E003A
:10050000120EA1E52B64F0601785A02B7D018009F8
:10051000E52B64F0600A12056B7F01120DDC80F0A0
:1005200075A0F7120FAD60247F0A7E00120EA1E5C0
:100530002B64F0601785A02B7D018009E52B64F00A
:0E054000600A12056B7F01120DDC80F0AF1A0D
:10054E002285A02B532BF07F327E00120EA17D024E
:10055E00227F0A7E00120EA1E52B64F02285A02BCD
:10056E00532BF07F327E00120EA17D022285A02B2E
:0A057E007D017F01120DDCE52B2248
:100AE000120470EF14B408005065900AF875F00312
:100AF000A4C58325F0C58373020B10020B13020BF0
:100B000016020B19020B1C020B2A020B39020B43B3
:100B1000020BB8020E35C2B722D2B722120F1AEF5B
:100B20002509F509EE3508F50822120F1AC3E50963
:100B30009FF509E5089EF5082274F4250DF50D745E
:0F0B4000018008740C250DF50D74FE350CF50CB5
:010B4F002283
:030FC900012AFFFB
:030013000206439F
:10064300C0E0C0F0C083C082C0D075D000C000C07D
:0D06530001C002C003C004C005C006C007FE
:10066000751900E4FD7F01120F757F0F120F2D30F9
:10067000B302806720B3077F01120F2D80F6751734
:100680000075180020B3FD30B3FD30B3107F0112A8
:100690000F2D0519E519C3941E40EF803E742325E4
:1006A00017F8C000E6C313D000F6E519C39408405C
:1006B0000974232517F8E64480F67519000518E536
:1006C00018C3940840BE0517E517C3940440B2E56B
:1006D00026F465256002800385252A7D017F0112AD
:0206E0000F7594
:1006E200D007D006D005D004D003D002D001D0006C
:0B06F200D0D0D082D083D0F0D0E03216
:10058800751AFFE51A652A7003020642852A1A7D44
:10059800017F01120DDCE51A12036306180805F540
:1005A8000C05F10D05E71605F91805EC1906221CCE
:1005B80005D84005DD4505E24605CE4705D34A0680
:1005C800085E0000062E120CC6805B12090B8056CE
:1005D800120D128051120F95804C120E5D80471239
:1005E8000BB88042120E35803DC2B78039D2B78031
:1005F80035120F1AEF2509F509EE3508F50880269A
:10060800120F1AC3E5099FF509E5089EF50880163B
:1006180074F4250DF50D74018008740C250DF50D85
:1006280074FE350CF50C751AFF752AFF7F327E00B3
:0A063800120EA17D027F01120DDCFD
:010642002295
:100B5000AE1BAF1CAB07AA06E4C39BFFE49AFE746E
:100B6000019400FDE49400FCE4FB7A01F9F8020D25
:100B7000577F107E27FC120D57EF24FFF512EE343D
:100B8000FFF511E510142212010EE4FBFA798078CA
:100B9000BF12001D1202528E0E8F0F22AC08AD093B
:100BA000E4020219E4FDFF120F63D2B622AE0CAFCD
:080BB0000DAB07AA06F9F822BB
:060FCD00EF24FF92AF22A9
:03000E008F8922B5
:100F3F00EF7006ED24FF928822BF0105ED24FF928A
:020F4F008A22F4
:100F5100EF7006ED24FF92A922BF0105ED24FF9257
:020F6100AB22C1
:100F6300EF7006ED24FF928C22BF0105ED24FF9262
:020F73008E22CC
:100F7500EF7006ED24FF92A822BF0105ED24FF9234
:020F8500AA229E
:0609FC008F1A8C1B8D1CFC
:100A0200EB14601D14602F14604024037048C3E48B
:100A1200951CFF7401951BF51D8F1EF5838F828037
:100A220035C3E4951CFD7420951BF51E751D0075DC
:100A320083008D828020120B508E1D8F1E120B5050
:100A4200AE02AF038E838F82800C851B1D851C1E18
:100A5200851B83851C82E51A7007851E8C85828A18
:0C0A620022E51AB40106851E8D85828BEA
:010A6E002265
:100984007F0112000E7B027D327C001F1209FC7B6A
:10099400037DFD7C007F011209FC7F01120FCD7DD8
:1009A400011F120F3F120F511D120F630D120F750D
:1009B4000F120F63120F3F120F75E4F513F514F5C0
:1009C4000CF50DF508F509F515F516120BAD1D120C
:1009D4000B71601004701B120B9C7BE47A38798EC7
:1009E4007841800B120B9C7B7D7AD67987784212F2
:0809F4000B87E4F50BF50A2264
:100E3500120BA4E4F515F516850E13850F14F50BA5
:100E45007D02120DDCE52DB4020D7BFF7A0A79785F
:080E55007D017F03120C18223D
:100BB800E50D450C6059E50945086053E4F515F560
:100BC80016F513F514120BADFD120B7160100470BD
:100BD8001B120B9C7BE47A38798E7841800B120BC0
:100BE8009C7B7D7AD679877842120B877D01E4FF5A
:100BF800120DDC750B01E52DB4020D7BFF7A0A7925
:100C0800737D017F03120C187D01E4FF120F63222C
:03000B00020C766E
:100C7600C0E0C0D075D000C005C007758CFF758A6E
:100C8600CEE516B51229E515B511247515007516AC
:100C960000B2B6E514B50F0FE513B50E0AE50A70F6
:100CA60006120BA5750B000514E514700205130555
:100CB60016E51670020515D007D005D0D0D0E03263
:0300030002080DE3
:10080D00C0E0C0F0C083C082C0D075D000C000C0B1
:10081D0001C002C003C004C005C006C007E4FDFF4F
:10082D00120F7520B23A7F0A7E00120EA120B2304F
:10083D007D017F01120DDC120BA4751500751600DC
:10084D00850E13850F14750B007D02E4120DDC303F
:10085D00B2FD7F327E00120EA17D027F01120DDCF2
:10086D007D01E4FF120F75D007D006D005D004D05E
:10087D0003D002D001D000D0D0D082D083D0F0D020
:02088D00E03257
:0D0F9500E50A70047F0180027F008F0A22B0
:100E5D00E51014601104701D7510017BFF7A0A797D
:100E6D008E7D02E4800BE4F5107BFF7A0A798A7D92
:060E7D0002FF120C182216
:100F1A00E5101460030480067E007F0580047E00CD
:020F2A007F1E28
:010F2C0022A2
:100A6F004D533A00576F726B0053746577004449CA
:100A7F00523A00506F73004E65670052413A005270
:100A8F004D3A0052533A00542E574B564552002DB3
:100A9F002D2D2D2D2D2D2D2D2D2D2D2D2D2D3E0093
:100AAF003C2F4D41545249583E00436F64652042DC
:100ABF0079004E656F6420416E6465726A6F6E00D7
:100ACF00537465704D6F746F72436F6E74726F6C89
:010ADF000016
:0B0FB8007BFF7A0A79CF7D02E4FF2264
:100CC600120006752D017BFF7A0A79967D017F0554
:100CD600120C18120FB8120D027A0A79AF7D017F35
:100CE60004120D027A0A79B97D01E4FF120C187B11
:100CF600FF7A0A79C17D027F03020C18120C187F55
:0C0D0600F47E01120EA11200067BFF22F9
:10090B00120006752D027BFF7A0A796F7D01E4FFD9
:10091B00120C187A0A79787F0312097C7A0A797D8E
:10092B007F0912097C7BFF7A0A79827D017F0D1288
:10093B000C18E510600B1470157BFF7A0A798E800A
:10094B00067BFF7A0A798A7D02E4FF120C187B0280
:10095B00AD09AC087F0312088F7BFF7A0A79927D71
:10096B00027F09120C187B02AD0DAC0C7F0C020838
:09097B008F7BFF7D01120C182294
:100D1200120006752D03E4F51B7BFF7A0A799E7D8E
:100D220001E4FF120C187BFF7A0A79967D01AF1B52
:100D3200120C18120FB8120C187FF47E01120EA1B9
:100D4200E52AB44009051BE51BC3941040CBE52AF4
:050D5200644060C222B4
:10078900D3E5099400E50894005002800BD3E509EC
:10079900940FE50894274005E4F508F509D3E50D1C
:1007A9009400E50C94005002800BD3E50D94A0E56C
:1007B9000C940F4005E4F50CF50DE52D640270432A
:1007C900E50B7BFF70067A0A797880047A0A7973D7
:1007D9007D017F03120C187BFF20B7067A0A798204
:1007E90080047A0A79867D017F0D120C187B02AD8F
:1007F90009AC087F0312088F7B02AD0DAC0C7F0C8E
:0408090012088F2220
:100016000202BEE86480F8E933E83360110460F058
:10002600ED33EC337009E8FCE9FDEAFEEBFF220450
:1000360060DED3EB9FEA9EE99DE8C2E78CF0C2F74B
:1000460095F0400CE8CCF8E9CDF9EACEFAEBCFFB17
:1000560012028985D0F05804700320D5B3E80470E5
:10006600075002B2D50202C892D5EC0460F7E4CC80
:10007600C0E0C398F8603B94186008400DD0E0FBE0
:100086000202A0E4FBFAC9FC8028E830E406E4C9D1
:10009600FBE4CAFCE830E305E4C9CACBFCE8540734
:1000A6006010F8C3E913F9EA13FAEB13FBEC13FC3F
:1000B600D8F130F52FC3E49CFCEF9BFFEE9AFEEDE2
:1000C60099FDD0E0FBEF4E4D4C701222DB0302028D
:1000D600C5EC2CFCEF33FFEE33FEED33FDED30E7E0
:1000E600EB0202A0EF2BFFEE3AFEED39FDD0E0FB6E
:1000F60050130BBB00030202C8ED13FDEE13FEEF17
:0801060013FFEC13FC0202A040
:10010E00EC4D6011E8497017ED33EC3304600DE4EB
:10011E00FCFFFEFD22E933E8330470F80202BE1242
:10012E00028958046009E4CC248150062850090243
:10013E0002C82840030202C5C0E0EB4A7044B980F1
:10014E0006D0E0FB0202B4EF4E701CBD8008EBFF40
:10015E00EAFEE9FD80EBE98DF0A4FEE5F00201F781
:10016E00E9CDF9EAFEEBFFEF89F0A4FCE5F0CE89CC
:10017E00F0A42EFFE435F0CD89F0A42DFEE435F089
:10018E008067EF4E7005BD80D780C3EF8BF0A4ACB7
:10019E00F0EE8BF0A42CFCE435F0F8EF8AF0A42CF2
:1001AE00E5F038FCE433CB8DF0A42CFCE5F03BF805
:1001BE00EE8AF0A42CFCE5F038F8E433CF89F0A4F5
:1001CE002CFCE5F038CF3400CE89F0A42FFFE5F0FB
:1001DE003EFEE433C98DF0A42EFEE5F039CD8AF053
:1001EE00A42FFFE5F03EFEE43DFD33D0E0FB5007CB
:1001FE000BBB000F0202C8EC2CFCEF33FFEE33FEFC
:06020E00ED33FD0202A029
:1002140075F020800E75F010800575F0087D007E65
:10022400007F003392D530D503120355EC334010D0
:10023400EF33FFEE33FEED33FDEC33FCD5F0ED226E
:0E024400E5F0247EA2D513CC92E7CDCEFF22AA
:10025200EDD2E7CD33EC3392D524814006E4FFFEA4
:10026200FDFC22FCE4CFCECDCC24E0501174FF8003
:10027200EDC3CC13CCCD13CDCE13CECF13CF0470A0
:07028200F030D5DE02035548
:10028900E9D2E7C933E833F892D5EDD2E7CD33ECBB
:0702990033FC5002B2D52234
:1002A000EC30E7100FBF000C0EBE00080DBD0004BF
:1002B0000BEB6014A2D5EB13FCED92E7FD2274FF6B
:1002C000FCFDFEFF22E480F8A2D574FF13FC7D80C4
:0302D000E480EFD8
:030000000206FDF8
:0C06FD00787FE4F6D8FD75812D020744DB
:1002D300BB010CE58229F582E5833AF583E02250E0
:1002E30006E92582F8E622BBFE06E92582F8E2222A
:0D02F300E58229F582E5833AF583E4932244
:10030000BC000BBE0029EF8DF084FFADF022E4CCE1
:10031000F875F008EF2FFFEE33FEEC33FCEE9DECAA
:10032000984005FCEE9DFE0FD5F0E9E4CEFD22EDF0
:10033000F8F5F0EE8420D21CFEADF075F008EF2F3A
:10034000FFED33FD4007985006D5F0F222C398FD2B
:050350000FD5F0EA22C8
:100D5700C2D5E830E70FB2D5E4C39BFBE49AFAE4C7
:100D670099F9E498F8EC30E717B2D5120D8D120314
:100D7700DEE4C39BFBE49AFAE499F9E498F880036C
:100D87001203DE30D50DE4C39FFFE49EFEE49DFD14
:040D9700E49CFC22BA
:0E035500C3E49FFFE49EFEE49DFDE49CFC22B9
:10036300D083D082F8E4937012740193700DA3A329
:1003730093F8740193F5828883E47374029368603D
:06038300EFA3A3A380DF3D
:100EF100E4FFFE120389600C0FEF70010E09E97027
:050F0100F20A80EF225E
:10070900020F87E493A3F8E493A34003F68001F270
:1007190008DFF48029E493A3F85407240CC8C333F1
:10072900C4540F4420C8834004F456800146F6DFC0
:10073900E4800B0102040810204080900FC3E47E7E
:10074900019360BCA3FF543F30E509541FFEE493B5
:10075900A360010ECF54C025E060A840B8E493A37C
:10076900FAE493A3F8E493A3C8C582C8CAC583CAA7
:10077900F0A3C8C582C8CAC583CADFE9DEE780BE5F
:010FCC000024
:10038900BB010689828A83E0225002E722BBFE0272
:09039900E32289828A83E49322A5
:1003A20075F008758200EF2FFFEE33FECD33CDCC12
:1003B20033CCC58233C5829BED9AEC99E582984095
:1003C2000CF582EE9BFEED9AFDEC99FC0FD5F0D672
:1003D200E4CEFBE4CDFAE4CCF9A88222B800C1B99C
:1003E2000059BA002DEC8BF084CFCECDFCE5F0CBDA
:1003F200F97818EF2FFFEE33FEED33FDEC33FCEB13
:1004020033FB10D703994004EB99FB0FD8E5E4F9CD
:10041200FA227818EF2FFFEE33FEED33FDEC33FCBA
:10042200C933C910D7059BE99A4007EC9BFCE99AAE
:10043200F90FD8E0E4C9FAE4CCFB2275F010EF2FF3
:10044200FFEE33FEED33FDCC33CCC833C810D707F3
:100452009BEC9AE899400AED9BFDEC9AFCE899F82E
:0E0462000FD5F0DAE4CDFBE4CCFAE4C8F922C1
:00000001FF
