:100DB600D2B6C2B77D02E4FF120D857D027F011215
:100DC6000D85120B83120E89120C2F7F207E0312C3
:080DD6000E24120ABE020D04F6
:0E0EF700120DB6120A5512065012078780F52A
:100E0600D3EF9400EE940040147D0A7C00ED1D7033
:0D0E1600011CED4C70F7EF1F70E61E80E32D
:010E230022AC
:100E9D00AD071FED600BE4FEEEC3940D50F20E8016
:010EAD00F74D
:010EAE002221
:100E2400D3EF9400EE940040147D7D7C00ED1D70A2
:0D0E3400011CED4C70F7EF1F70E61E80E30F
:010E4100228E
:100D8500EF146018047029ED24FE600A14600A242B
:100D950002701DC29022D29022B29022ED24FE60F4
:100DA5000A14600A24027008C29122D29122B291DB
:010DB500221B
:100D0400E4F519120D277F327E00120E24120D27EE
:100D14000519E519C3940340EA7D02E4FF120D8529
:030D2400020D8538
:100D27007D03E4FF120D850F120D857F327E0012C1
:0E0D37000E247D03E4FF120D850F120D8522A0
:030F3300012C028C
:0B0F1200AE1BAF1C7C037DE802030057
:100E4200C2B5C2B48F807F057E00120E24D2B47F59
:090E5200057E00120E24C2B42238
:100E5B00D2B5C2B48F807F057E00120E24D2B47F30
:090E6B00057E00120E24C2B4221F
:050006007F01020E4223
:100E8900C2B47F38120E427F0C120E427F06120E38
:040E9900420200060B
:0A0B25008F1B8D1C8B1D8A1E891F7B
:100B2F00E51CB40106E51B24808009E51CB402080E
:100B3F00E51B24C0FF120E42E4F520F521AB1DAAE0
:100B4F001EA91F120E74C3E5219FE5209E5024ABF2
:100B5F001DAA1EA91F8521828520831202D3FF1291
:100B6F000E5B7F057E00120E060521E52170CE0576
:030B7F002080CA09
:010B82002250
:10088D008F1A8C1B8D1C8B1DE51DB40106E51A24DA
:10089D00808009E51DB40208E51A24C0FF120E423E
:1008AD00120F12EF2430FF120E5B120F127F641223
:1008BD0008F27C007D641203007F0A1208F27C00AE
:1008CD007D0A120300ED2430FF120E5BE51DB4010D
:1008DD0006E51A24808009E51DB40208E51A24C036
:1008ED00FF120E42227E00CFCDCFCECCCE12030012
:0C08FD00EF2430FF120E5BAE1BAF1C227C
:030F3600012B008C
:0B0F1D0085A02A532AF0E52A64F02288
:1004700075A0FE120F1D603A12055F603512057BF4
:100480002482601B24C0601224E0600924F07012F2
:10049000751901800D75190280087519038003759F
:1004A0001904E52A64F0600A12054F7F01120D85D8
:1004B00080F075A0FD120F1D603A12055F603512C5
:1004C000057B2483601B24C0601224E0600924F0B3
:1004D0007012751905800D75190680087519078049
:1004E00003751908E52A64F0600A12054F7F0112AE
:1004F0000D8580F075A0FB120F1D60247F0A7E0021
:10050000120E24E52A64F0601785A02A7D01800977
:10051000E52A64F0600A12056B7F01120D8580F0F8
:1005200075A0F7120F1D60247F0A7E00120E24E5CD
:100530002A64F0601785A02A7D018009E52A64F00D
:0E054000600A12056B7F01120D8580F0AF1965
:10054E002285A02A532AF07F327E00120E247D02CD
:10055E00227F0A7E00120E24E52A64F02285A02A4C
:10056E00532AF07F327E00120E247D022285A02AAD
:0A057E007D017F01120D85E52A22A0
:100A5500120470EF14B40800505E900A6D75F0032F
:100A6500A4C58325F0C58373020A85020A88020A94
:100A75008B020A8E020A91020A9A020AA7020AB199
:100A8500020D45020DDEC2B722D2B722741E25091A
:100A9500F509E4800874E22509F50974FF3508F5C0
:100AA500082274F4250DF50D74018008740C250DCC
:080AB500F50D74FE350CF50C83
:010ABD002216
:030F39000129FF8C
:030013000205885B
:10058800C0E0C0F0C083C082C0D075D000C000C039
:0D05980001C002C003C004C005C006C007BA
:1005A500751800E4FD7F01120EE57F0F120E9D30D8
:1005B500B302807520B3077F01120E9D80F6751674
:1005C5000075170030B3077F01120E9D80F620B32A
:1005D500077F01120E9D80F630B3107F01120E9D2C
:1005E5000518E518C3941E40EF803E74222516F8C1
:1005F500C000E6C313D000F6E518C394084009749B
:10060500222516F8E64480F67518000517E517C388
:10061500940840B00516E516C3940440A4E525F4F6
:100625006524600280038524297D017F01120EE582
:10063500D007D006D005D004D003D002D001D00019
:0B064500D0D0D082D083D0F0D0E032C3
:100650007519FFE519652970030206FA8529197DC8
:10066000017F01120D85E51912036306D00806B556
:100670000C06B10D06A71606B91806AC1906DA1C49
:10068000069D4006A24506934706984A06C25E00AC
:100690000006E6120C2F804E120ABE8049120C7B17
:1006A0008044120F05803F120D45803A120DDE8006
:1006B00035C2B78031D2B7802D741E2509F509E403
:1006C000800874E22509F50974FF3508F5088016DD
:1006D00074F4250DF50D74018008740C250DF50DCD
:1006E00074FE350CF50C7519FF7529FF7F327E00FD
:0A06F000120E247D027F01120D8519
:0106FA0022DD
:1009E9007F107E27FC120CC0EF24FFF511EE34FFB7
:1009F900F510AC08AD09E41202197BE47A38798E56
:100A0900784112010EE4FBFA798078BF12001D12B9
:100A190002528E0E8F0F22AE1AAF1BAB07AA06E445
:100A2900C39BFFE49AFE74019400FDE49400FCE486
:100A3900FB7A01F9F8020CC0E4FDFF120ED3D2B61D
:0C0A490022AE0CAF0DAB07AA06F9F82294
:060F3D00EF24FF92AF2239
:03000E008F8922B5
:100EAF00EF7006ED24FF928822BF0105ED24FF921B
:020EBF008A2285
:100EC100EF7006ED24FF92A922BF0105ED24FF92E8
:020ED100AB2252
:100ED300EF7006ED24FF928C22BF0105ED24FF92F3
:020EE3008E225D
:100EE500EF7006ED24FF92A822BF0105ED24FF92C5
:020EF500AA222F
:060909008F198C1A8D1BF2
:10090F00EB14601D14602F14604024037048C3E47F
:10091F00951BFF7401951AF51C8F1DF5838F82802F
:10092F0035C3E4951BFD7420951AF51D751C0075D4
:10093F0083008D828020120A208E1C8F1D120A20A8
:10094F00AE02AF038E838F82800C851A1C851B1D10
:10095F00851A83851B82E5197007851D8C85828A10
:0C096F0022E519B40106851D8D85828BE0
:01097B002259
:100B83007F0112000E7B027D327C001F1209097B5C
:100B9300037DFD7C007F011209097F01120F3D7D5A
:100BA300011F120EAF120EC11D120ED30D120EE550
:100BB3000F120ED3120EAF120EE5E4F512F51375F4
:100BC3000C01750DF4750801750968F514F5151216
:0C0BD3000A4A1D1209E9E4F50BF50A229C
:100DDE00120A41E4F514F515850E12850F13F50B65
:100DEE007D02120D85E52CB4020D7BFF7A09798503
:080DFE007D017F03120B252289
:100D4500E50D450C6039E50945086033E4F514F512
:100D550015F512F513120A4AFD1209E97D01E4FFA2
:100D6500120D85750B01E52CB4020D7BFF7A09790F
:100D7500807D017F03120B257D01E4FF120ED32236
:03000B00020BDF06
:100BDF00C0E0C0D075D000C005C007758CFF758A06
:100BEF00CEE515B51129E514B5102475140075154A
:100BFF0000B2B6E513B50F0FE512B50E0AE50A7090
:100C0F0006120A42750B000513E513700205120553
:100C1F0015E51570020514D007D005D0D0D0E032FD
:0300030002080BE5
:10080B00C0E0C0F0C083C082C0D075D000C000C0B3
:10081B0001C002C003C004C005C006C007E4FDFF51
:10082B00120EE520B23A7F0A7E00120E2420B2305F
:10083B007D017F01120D85120A417514007515009B
:10084B00850E12850F13750B007D02E4120D85309A
:10085B00B2FD7F327E00120E247D027F01120D85C8
:10086B007D01E4FF120EE5D007D006D005D004D0F1
:10087B0003D002D001D000D0D0D082D083D0F0D022
:02088B00E03259
:0D0F0500E50A70047F0180027F008F0A2240
:10097C004D533A00576F726B0053746577004449BE
:10098C00523A00506F73004E65670052413A005264
:10099C00533A00542E574B564552002D2D2D2D2DCC
:1009AC002D2D2D2D2D2D2D2D2D2D3E003C2F4D4142
:1009BC00545249583E00436F6465204279004E659D
:1009CC006F6420416E6465726A6F6E00537465705B
:0D09DC004D6F746F72436F6E74726F6C001C
:0B0F28007A0979D87BFF7D02E4FF22EC
:100C2F00120006752C017BFF7A09799F7D017F05E4
:100C3F00120B25120F28120C6B7A0979B87D017FE0
:100C4F0004120C6B7A0979C27D01E4FF120B257B2C
:100C5F00FF7A0979CA7D027F03020B25120B257FCC
:0C0C6F00F47E01120E241200067BFF220E
:100ABE00120006752C027BFF7A09797C7D01E4FF1A
:100ACE00120B257A0979857F03120B1D7A09798A13
:100ADE007F09120B1D7BFF7A09798F7D017F0D1225
:100AEE000B257A097997120F2C120B257B02AD0973
:100AFE00AC087F0312088D7BFF7A09799B7D027FFC
:100B0E0009120B257B02AD0DAC0C7F0C02088D7B00
:070B1E00FF7D01120B2522EF
:100C7B00120006752C03E4F51A7BFF7A0979A77D20
:100C8B0001E4FF120B257BFF7A09799F7D01AF1AD7
:100C9B00120B25120F28120B257FF47E01120E2446
:100CAB00E529B44009051AE51AC3941040CBE52990
:050CBB00644060C2224C
:10078700D3E5099400E50894005002800BD3E509EE
:10079700940FE50894274005E4F508F509D3E50D1E
:1007A7009400E50C94005002800BD3E50D94A0E56E
:1007B7000C940F4005E4F50CF50DE52C640270432D
:1007C700E50B7BFF70067A09798580047A097980C1
:1007D7007D017F03120B257BFF20B7067A09798FEE
:1007E70080047A0979937D017F0D120B257B02AD79
:1007F70009AC087F0312088D7B02AD0DAC0C7F0C92
:0408070012088D2224
:100016000202BEE86480F8E933E83360110460F058
:10002600ED33EC337009E8FCE9FDEAFEEBFF220450
:1000360060DED3EB9FEA9EE99DE8C2E78CF0C2F74B
:1000460095F0400CE8CCF8E9CDF9EACEFAEBCFFB17
:1000560012028985D0F05804700320D5B3E80470E5
:10006600075002B2D50202C892D5EC0460F7E4CC80
:10007600C0E0C398F8603B94186008400DD0E0FBE0
:100086000202A0E4FBFAC9FC8028E830E406E4C9D1
:10009600FBE4CAFCE830E305E4C9CACBFCE8540734
:1000A6006010F8C3E913F9EA13FAEB13FBEC13FC3F
:1000B600D8F130F52FC3E49CFCEF9BFFEE9AFEEDE2
:1000C60099FDD0E0FBEF4E4D4C701222DB0302028D
:1000D600C5EC2CFCEF33FFEE33FEED33FDED30E7E0
:1000E600EB0202A0EF2BFFEE3AFEED39FDD0E0FB6E
:1000F60050130BBB00030202C8ED13FDEE13FEEF17
:0801060013FFEC13FC0202A040
:10010E00EC4D6011E8497017ED33EC3304600DE4EB
:10011E00FCFFFEFD22E933E8330470F80202BE1242
:10012E00028958046009E4CC248150062850090243
:10013E0002C82840030202C5C0E0EB4A7044B980F1
:10014E0006D0E0FB0202B4EF4E701CBD8008EBFF40
:10015E00EAFEE9FD80EBE98DF0A4FEE5F00201F781
:10016E00E9CDF9EAFEEBFFEF89F0A4FCE5F0CE89CC
:10017E00F0A42EFFE435F0CD89F0A42DFEE435F089
:10018E008067EF4E7005BD80D780C3EF8BF0A4ACB7
:10019E00F0EE8BF0A42CFCE435F0F8EF8AF0A42CF2
:1001AE00E5F038FCE433CB8DF0A42CFCE5F03BF805
:1001BE00EE8AF0A42CFCE5F038F8E433CF89F0A4F5
:1001CE002CFCE5F038CF3400CE89F0A42FFFE5F0FB
:1001DE003EFEE433C98DF0A42EFEE5F039CD8AF053
:1001EE00A42FFFE5F03EFEE43DFD33D0E0FB5007CB
:1001FE000BBB000F0202C8EC2CFCEF33FFEE33FEFC
:06020E00ED33FD0202A029
:1002140075F020800E75F010800575F0087D007E65
:10022400007F003392D530D503120355EC334010D0
:10023400EF33FFEE33FEED33FDEC33FCD5F0ED226E
:0E024400E5F0247EA2D513CC92E7CDCEFF22AA
:10025200EDD2E7CD33EC3392D524814006E4FFFEA4
:10026200FDFC22FCE4CFCECDCC24E0501174FF8003
:10027200EDC3CC13CCCD13CDCE13CECF13CF0470A0
:07028200F030D5DE02035548
:10028900E9D2E7C933E833F892D5EDD2E7CD33ECBB
:0702990033FC5002B2D52234
:1002A000EC30E7100FBF000C0EBE00080DBD0004BF
:1002B0000BEB6014A2D5EB13FCED92E7FD2274FF6B
:1002C000FCFDFEFF22E480F8A2D574FF13FC7D80C4
:0302D000E480EFD8
:030000000206FBFA
:0C06FB00787FE4F6D8FD75812C020742E0
:1002D300BB010CE58229F582E5833AF583E02250E0
:1002E30006E92582F8E622BBFE06E92582F8E2222A
:0D02F300E58229F582E5833AF583E4932244
:10030000BC000BBE0029EF8DF084FFADF022E4CCE1
:10031000F875F008EF2FFFEE33FEEC33FCEE9DECAA
:10032000984005FCEE9DFE0FD5F0E9E4CEFD22EDF0
:10033000F8F5F0EE8420D21CFEADF075F008EF2F3A
:10034000FFED33FD4007985006D5F0F222C398FD2B
:050350000FD5F0EA22C8
:100CC000C2D5E830E70FB2D5E4C39BFBE49AFAE45F
:100CD00099F9E498F8EC30E717B2D5120CF6120344
:100CE000DEE4C39BFBE49AFAE499F9E498F8800304
:100CF0001203DE30D50DE4C39FFFE49EFEE49DFDAC
:040D0000E49CFC2251
:0E035500C3E49FFFE49EFEE49DFDE49CFC22B9
:10036300D083D082F8E4937012740193700DA3A329
:1003730093F8740193F5828883E47374029368603D
:06038300EFA3A3A380DF3D
:100E7400E4FFFE120389600C0FEF70010E09E970A4
:050E8400F20A80EF22DC
:10070700020EF7E493A3F8E493A34003F68001F203
:1007170008DFF48029E493A3F85407240CC8C333F3
:10072700C4540F4420C8834004F456800146F6DFC2
:10073700E4800B0102040810204080900F33E47E10
:10074700019360BCA3FF543F30E509541FFEE493B7
:10075700A360010ECF54C025E060A840B8E493A37E
:10076700FAE493A3F8E493A3C8C582C8CAC583CAA9
:10077700F0A3C8C582C8CAC583CADFE9DEE780BE61
:010F3C0000B4
:10038900BB010689828A83E0225002E722BBFE0272
:09039900E32289828A83E49322A5
:1003A20075F008758200EF2FFFEE33FECD33CDCC12
:1003B20033CCC58233C5829BED9AEC99E582984095
:1003C2000CF582EE9BFEED9AFDEC99FC0FD5F0D672
:1003D200E4CEFBE4CDFAE4CCF9A88222B800C1B99C
:1003E2000059BA002DEC8BF084CFCECDFCE5F0CBDA
:1003F200F97818EF2FFFEE33FEED33FDEC33FCEB13
:1004020033FB10D703994004EB99FB0FD8E5E4F9CD
:10041200FA227818EF2FFFEE33FEED33FDEC33FCBA
:10042200C933C910D7059BE99A4007EC9BFCE99AAE
:10043200F90FD8E0E4C9FAE4CCFB2275F010EF2FF3
:10044200FFEE33FEED33FDCC33CCC833C810D707F3
:100452009BEC9AE899400AED9BFDEC9AFCE899F82E
:0E0462000FD5F0DAE4CDFBE4CCFAE4C8F922C1
:00000001FF
