:100E1000D2B6C2B77D02E4FF120D927D027F0112AD
:100E20000D92120B4E120EB8120C477F207E031249
:050E30000E530209232E
:100F3900120E10120D1C120A801205881206FD806D
:010F4900F5B2
:100E3500D3EF9400EE940040147D0A7C00ED1D7004
:0D0E4500011CED4C70F7EF1F70E61E80E3FE
:010E5200227D
:100EDF00AD071FED600BE4FEEEC3940D50F20E80D4
:010EEF00F70B
:010EF00022DF
:100E5300D3EF9400EE940040147D7D7C00ED1D7073
:0D0E6300011CED4C70F7EF1F70E61E80E3E0
:010E7000225F
:100D9200EF146018047029ED24FE600A14600A241E
:100DA20002701DC29022D29022B29022ED24FE60E7
:100DB2000A14600A24027008C29122D29122B291CE
:010DC200220E
:100D1C00E4F51A120D3F7F327E00120E53120D3F76
:100D2C00051AE51AC3940340EA7D02E4FF120D9202
:030D3C00020D9213
:100D3F007D03E4FF120D920F120D927F327E00128F
:0E0D4F000E537D03E4FF120D920F120D92223F
:030F8900012D0235
:0B0F6800AE1CAF1D7C037DE8020300FF
:100E7100C2B5C2B48F807F057E00120E53D2B47FFB
:090E8100057E00120E53C2B422DA
:100E8A00D2B5C2B48F807F057E00120E53D2B47FD2
:090E9A00057E00120E53C2B422C1
:050006007F01020E71F4
:100EB800C2B47F38120E717F0C120E717F06120EAB
:040EC80071020006AD
:0A0AF0008F1C8D1D8B1E8A1F8920AC
:100AFA00E51DB40106E51C24808009E51DB4020841
:100B0A00E51C24C0FF120E71E4F521F522AB1EAAE2
:100B1A001FA920120EA3C3E5229FE5219E5024ABF4
:100B2A001EAA1FA9208522828521831202D3FF12C1
:100B3A000E8A7F057E00120E350522E52270CE054B
:030B4A002180CA3D
:010B4D002285
:10082B008F1B8C1C8D1D8B1EE51EB40106E51B2436
:10083B00808009E51EB40208E51B24C0FF120E716F
:10084B00120F68EF2430FF120E8A120F687F6412AA
:10085B0008907C007D641203007F0A1208907C00D4
:10086B007D0A120300ED2430FF120E8AE51EB4013F
:10087B0006E51B24808009E51EB40208E51B24C095
:10088B00FF120E71227E00CFCDCFCECCCE12030045
:0C089B00EF2430FF120E8AAE1CAF1D22AD
:030F8C00012C0035
:0B0F730085A02B532BF0E52B64F0222F
:1004700075A0FE120F73603A12055F603512057B9E
:100480002482601B24C0601224E0600924F07012F2
:10049000751A01800D751A028008751A038003759C
:1004A0001A04E52B64F0600A12054F7F01120D92C9
:1004B00080F075A0FD120F73603A12055F6035126F
:1004C000057B2483601B24C0601224E0600924F0B3
:1004D0007012751A05800D751A068008751A078046
:1004E00003751A08E52B64F0600A12054F7F0112AC
:1004F0000D9280F075A0FB120F7360247F0A7E00BE
:10050000120E53E52B64F0601785A02B7D01800946
:10051000E52B64F0600A12056B7F01120D9280F0EA
:1005200075A0F7120F7360247F0A7E00120E53E548
:100530002B64F0601785A02B7D018009E52B64F00A
:0E054000600A12056B7F01120D9280F0AF1A57
:10054E002285A02B532BF07F327E00120E537D029C
:10055E00227F0A7E00120E53E52B64F02285A02B1B
:10056E00532BF07F327E00120E537D022285A02B7C
:0A057E007D017F01120D92E52B2292
:100A8000120470EF14B408005065900A9875F003D2
:100A9000A4C58325F0C58373020AB0020AB3020A13
:100AA000B6020AB9020ABC020ACA020AD9020AE359
:100AB000020DC3020F4AC2B722D2B722120ECCEFE8
:100AC0002509F509EE3508F50822120ECCC3E50913
:100AD0009FF509E5089EF5082274F4250DF50D74BF
:0F0AE000018008740C250DF50D74FE350CF50C16
:010AEF0022E4
:030F8F00012AFF35
:030013000206439F
:10064300C0E0C0F0C083C082C0D075D000C000C07D
:0D06530001C002C003C004C005C006C007FE
:10066000751900E4FD7F01120F277F0F120EDF3096
:10067000B302806720B3077F01120EDF80F6751783
:100680000075180020B3FD30B3FD30B3107F0112A8
:100690000EDF0519E519C3941E40EF803E74232533
:1006A00017F8C000E6C313D000F6E519C39408405C
:1006B0000974232517F8E64480F67519000518E536
:1006C00018C3940840BE0517E517C3940440B2E56B
:1006D00026F465256002800385252A7D017F0112AD
:0206E0000F27E2
:1006E200D007D006D005D004D003D002D001D0006C
:0B06F200D0D0D082D083D0F0D0E03216
:10058800751AFFE51A652A7003020642852A1A7D44
:10059800017F01120D92E51A12036306180805F58A
:1005A8000C05F10D05E71605F91805EC1906221CCE
:1005B80005D84005DD4505E24605CE4705D34A0680
:1005C800085E0000062E120C47805B120923805635
:1005D800120C938051120F5B804C120DEA80471267
:1005E8000DC38042120F4A803DC2B78039D2B7800E
:1005F80035120ECCEF2509F509EE3508F5088026E9
:10060800120ECCC3E5099FF509E5089EF50880168A
:1006180074F4250DF50D74018008740C250DF50D85
:1006280074FE350CF50C751AFF752AFF7F327E00B3
:0A063800120E537D027F01120D9295
:010642002295
:100D5D00AE1BAF1CAB07AA06E4C39BFFE49AFE745F
:100D6D00019400FDE49400FCE4FB7A01F9F8020C17
:100D7D00D8E4FDFF120F15D2B622AE0CAF0DAB07A6
:050D8D00AA06F9F8229E
:060F9300EF24FF92AF22E3
:03000E008F8922B5
:100EF100EF7006ED24FF928822BF0105ED24FF92D9
:020F01008A2242
:100F0300EF7006ED24FF92A922BF0105ED24FF92A5
:020F1300AB220F
:100F1500EF7006ED24FF928C22BF0105ED24FF92B0
:020F25008E221A
:100F2700EF7006ED24FF92A822BF0105ED24FF9282
:020F3700AA22EC
:06099C008F1A8C1B8D1C5C
:1009A200EB14601D14602F14604024037048C3E4EC
:1009B200951CFF7401951BF51D8F1EF5838F828098
:1009C20035C3E4951CFD7420951BF51E751D00753D
:1009D20083008D828020120D5D8E1D8F1E120D5D93
:1009E200AE02AF038E838F82800C851B1D851C1E79
:1009F200851B83851C82E51A7007851E8C85828A79
:0C0A020022E51AB40106851E8D85828B4A
:010A0E0022C5
:100BA6007F107E27FC120CD8EF24FFF512EE34FFDF
:020BB600F51137
:100BB800E510146015047036AC08AD09E41202198A
:100BC8007BE47A38798E78418010AC08AD09E4125C
:100BD80002197B167A7B79D6784212010EE4FBFA69
:0F0BE800798078BF12001D1202528E0E8F0F22DD
:100B4E007F0112000E7B027D327C001F12099C7BFE
:100B5E00037DFD7C007F0112099C7F01120F937DA6
:100B6E00011F120EF1120F031D120F150D120F277A
:100B7E000F120F15120EF1120F27E4F513F514F5DF
:100B8E000CF50DF508F509F515F516120D871D1264
:080B9E000BA6E4F50BF50A2299
:100F4A00120D7EE4F515F516850E13850F14F50BB3
:010F5A002274
:100DC300E50D450C6020E5094508601AE4F515F5C5
:100DD30016F513F514120D87FD120BA6750B017D85
:070DE30001E4FF120F1522CD
:03000B00020BF7EE
:100BF700C0E0C0D075D000C005C007758CFF758AEE
:100C0700CEE516B51229E515B5112475150075162B
:100C170000B2B6E514B50F0FE513B50E0AE50A7075
:100C270006120D7F750B000514E5147002051305F8
:100C370016E51670020515D007D005D0D0D0E032E2
:030003000208A749
:1008A700C0E0C0F0C083C082C0D075D000C000C017
:1008B70001C002C003C004C005C006C007E4FDFFB5
:1008C700120F2720B2347F0A7E00120E5320B22A5D
:1008D7007D017F01120D92120D7E751500751600B0
:1008E700850E13850F14750B0030B2FD7F327E0025
:1008F700120E537D027F01120D927D01E4FF120F4C
:1009070027D007D006D005D004D003D002D001D01D
:0C09170000D0D0D082D083D0F0D0E032ED
:0D0F5B00E50A70047F0180027F008F0A22EA
:100DEA00E51014601104701D7510017BFF7A0A79F1
:100DFA002E7D02E4800BE4F5107BFF7A0A792A7DC6
:060E0A0002FF120AF022B3
:100A0F004D533A00576F726B00537465770044492A
:100A1F00523A00506F73004E65670052413A0052D0
:100A2F004D3A0052533A00542E574B564552002D13
:100A3F002D2D2D2D2D2D2D2D2D2D2D2D2D2D3E00F3
:100A4F003C2F4D41545249583E00436F646520423C
:100A5F0079004E656F6420416E6465726A6F6E0037
:100A6F00537465704D6F746F72436F6E74726F6CE9
:010A7F000076
:0B0F7E007BFF7A0A796F7D02E4FF22FE
:100C4700120006752D017BFF7A0A79367D017F0533
:100C5700120AF0120F7E120C837A0A794F7D017FF8
:100C670004120C837A0A79597D01E4FF120AF07B9A
:100C7700FF7A0A79617D027F03020AF0120AF07F88
:0C0C8700F47E01120E531200067BFF22C7
:10092300120006752D027BFF7A0A790F7D01E4FF21
:10093300120AF07A0A79187F031209947A0A791D48
:100943007F091209947BFF7A0A79227D017F0D12B8
:100953000AF0E510600B1470157BFF7A0A792E807C
:10096300067BFF7A0A792A7D02E4FF120AF07B02F2
:10097300AD09AC087F0312082B7BFF7A0A79327D1D
:10098300027F09120AF07B02AD0DAC0C7F0C02084A
:090993002B7BFF7D01120AF0220A
:100C9300120006752D03E4F51B7BFF7A0A793E7D6E
:100CA30001E4FF120AF07BFF7A0A79367D01AF1B5C
:100CB300120AF0120F7E120AF07FF47E01120E5315
:100CC300E52AB44009051BE51BC3941040CBE52A74
:050CD300644060C22234
:1006FD00D3E5099400E50894005002800BD3E50979
:10070D00940FE50894274005E4F508F509D3E50DA8
:10071D009400E50C94005002800BD3E50D94A0E5F8
:10072D000C940F4005E4F50CF50DE52D64027052A7
:10073D00E50B700E7D02FF120D927BFF7A0A791880
:10074D00800D7D01E4FF120D927BFF7A0A79137DF6
:10075D00017F03120AF07BFF20B7067A0A79228007
:10076D00047A0A79267D017F0D120AF07B02AD090C
:10077D00AC087F0312082B7B02AD0DAC0C7F0C1265
:10078D00082BE50B70047D0280037D01E4FF120D43
:02079D009222A6
:100ECC00E5101460030480067E007F0580047E001C
:020EDC007F1E77
:010EDE0022F1
:100016000202BEE86480F8E933E83360110460F058
:10002600ED33EC337009E8FCE9FDEAFEEBFF220450
:1000360060DED3EB9FEA9EE99DE8C2E78CF0C2F74B
:1000460095F0400CE8CCF8E9CDF9EACEFAEBCFFB17
:1000560012028985D0F05804700320D5B3E80470E5
:10006600075002B2D50202C892D5EC0460F7E4CC80
:10007600C0E0C398F8603B94186008400DD0E0FBE0
:100086000202A0E4FBFAC9FC8028E830E406E4C9D1
:10009600FBE4CAFCE830E305E4C9CACBFCE8540734
:1000A6006010F8C3E913F9EA13FAEB13FBEC13FC3F
:1000B600D8F130F52FC3E49CFCEF9BFFEE9AFEEDE2
:1000C60099FDD0E0FBEF4E4D4C701222DB0302028D
:1000D600C5EC2CFCEF33FFEE33FEED33FDED30E7E0
:1000E600EB0202A0EF2BFFEE3AFEED39FDD0E0FB6E
:1000F60050130BBB00030202C8ED13FDEE13FEEF17
:0801060013FFEC13FC0202A040
:10010E00EC4D6011E8497017ED33EC3304600DE4EB
:10011E00FCFFFEFD22E933E8330470F80202BE1242
:10012E00028958046009E4CC248150062850090243
:10013E0002C82840030202C5C0E0EB4A7044B980F1
:10014E0006D0E0FB0202B4EF4E701CBD8008EBFF40
:10015E00EAFEE9FD80EBE98DF0A4FEE5F00201F781
:10016E00E9CDF9EAFEEBFFEF89F0A4FCE5F0CE89CC
:10017E00F0A42EFFE435F0CD89F0A42DFEE435F089
:10018E008067EF4E7005BD80D780C3EF8BF0A4ACB7
:10019E00F0EE8BF0A42CFCE435F0F8EF8AF0A42CF2
:1001AE00E5F038FCE433CB8DF0A42CFCE5F03BF805
:1001BE00EE8AF0A42CFCE5F038F8E433CF89F0A4F5
:1001CE002CFCE5F038CF3400CE89F0A42FFFE5F0FB
:1001DE003EFEE433C98DF0A42EFEE5F039CD8AF053
:1001EE00A42FFFE5F03EFEE43DFD33D0E0FB5007CB
:1001FE000BBB000F0202C8EC2CFCEF33FFEE33FEFC
:06020E00ED33FD0202A029
:1002140075F020800E75F010800575F0087D007E65
:10022400007F003392D530D503120355EC334010D0
:10023400EF33FFEE33FEED33FDEC33FCD5F0ED226E
:0E024400E5F0247EA2D513CC92E7CDCEFF22AA
:10025200EDD2E7CD33EC3392D524814006E4FFFEA4
:10026200FDFC22FCE4CFCECDCC24E0501174FF8003
:10027200EDC3CC13CCCD13CDCE13CECF13CF0470A0
:07028200F030D5DE02035548
:10028900E9D2E7C933E833F892D5EDD2E7CD33ECBB
:0702990033FC5002B2D52234
:1002A000EC30E7100FBF000C0EBE00080DBD0004BF
:1002B0000BEB6014A2D5EB13FCED92E7FD2274FF6B
:1002C000FCFDFEFF22E480F8A2D574FF13FC7D80C4
:0302D000E480EFD8
:0300000002079F55
:0C079F00787FE4F6D8FD75812D0207E696
:1002D300BB010CE58229F582E5833AF583E02250E0
:1002E30006E92582F8E622BBFE06E92582F8E2222A
:0D02F300E58229F582E5833AF583E4932244
:10030000BC000BBE0029EF8DF084FFADF022E4CCE1
:10031000F875F008EF2FFFEE33FEEC33FCEE9DECAA
:10032000984005FCEE9DFE0FD5F0E9E4CEFD22EDF0
:10033000F8F5F0EE8420D21CFEADF075F008EF2F3A
:10034000FFED33FD4007985006D5F0F222C398FD2B
:050350000FD5F0EA22C8
:100CD800C2D5E830E70FB2D5E4C39BFBE49AFAE447
:100CE80099F9E498F8EC30E717B2D5120D0E120313
:100CF800DEE4C39BFBE49AFAE499F9E498F88003EC
:100D08001203DE30D50DE4C39FFFE49EFEE49DFD93
:040D1800E49CFC2239
:0E035500C3E49FFFE49EFEE49DFDE49CFC22B9
:10036300D083D082F8E4937012740193700DA3A329
:1003730093F8740193F5828883E47374029368603D
:06038300EFA3A3A380DF3D
:100EA300E4FFFE120389600C0FEF70010E09E97075
:050EB300F20A80EF22AD
:1007AB00020F39E493A3F8E493A34003F68001F21C
:1007BB0008DFF48029E493A3F85407240CC8C3334F
:1007CB00C4540F4420C8834004F456800146F6DF1E
:1007DB00E4800B0102040810204080900F89E47E16
:1007EB00019360BCA3FF543F30E509541FFEE49313
:1007FB00A360010ECF54C025E060A840B8E493A3DA
:10080B00FAE493A3F8E493A3C8C582C8CAC583CA04
:10081B00F0A3C8C582C8CAC583CADFE9DEE780BEBC
:010F9200005E
:10038900BB010689828A83E0225002E722BBFE0272
:09039900E32289828A83E49322A5
:1003A20075F008758200EF2FFFEE33FECD33CDCC12
:1003B20033CCC58233C5829BED9AEC99E582984095
:1003C2000CF582EE9BFEED9AFDEC99FC0FD5F0D672
:1003D200E4CEFBE4CDFAE4CCF9A88222B800C1B99C
:1003E2000059BA002DEC8BF084CFCECDFCE5F0CBDA
:1003F200F97818EF2FFFEE33FEED33FDEC33FCEB13
:1004020033FB10D703994004EB99FB0FD8E5E4F9CD
:10041200FA227818EF2FFFEE33FEED33FDEC33FCBA
:10042200C933C910D7059BE99A4007EC9BFCE99AAE
:10043200F90FD8E0E4C9FAE4CCFB2275F010EF2FF3
:10044200FFEE33FEED33FDCC33CCC833C810D707F3
:100452009BEC9AE899400AED9BFDEC9AFCE899F82E
:0E0462000FD5F0DAE4CDFBE4CCFAE4C8F922C1
:00000001FF
