:100E5E00D2B6C2B77D02E4FF120DB67D027F01123B
:100E6E000DB6120B7F120F38120C787FBC7E021259
:050E7E000EA102088C2A
:100F0C00120E5E120DE71209E9120588120D461237
:070F1C000FCA12078980EFE4
:100E8300D3EF9400EE940040147D0A7C00ED1D70B6
:0D0E9300011CED4C70F7EF1F70E61E80E3B0
:010EA000222F
:100F5F00AD071FED600BE4FEEEC3940D50F20E8053
:010F6F00F78A
:010F7000225E
:100EA100D3EF9400EE940040147D7D7C00ED1D7025
:0D0EB100011CED4C70F7EF1F70E61E80E392
:010EBE002211
:08100800FEFDFBF7EFDFBF7FE7
:030EBF00013400FB
:100DB600EF146018047029ED24FE600A14600A24FA
:100DC60002701DC29022D29022B29022ED24FE60C3
:100DD6000A14600A24027008C29122D29122B291AA
:010DE60022EA
:100DE700E4F51A120E047F327E00120EA1120E04D1
:0C0DF700051AE51AC3940340EA7590FF4A
:0E0E030022E4F5907F32FE120EA17590FF22C0
:100D0B00E4F51CF51BE51CB407057534018006E5FD
:100D1B001C7002F534E5347004051C8002151CE5CB
:100D2B001C90100893F5907F327E00120EA1051BCC
:0A0D3B00E51BC3940E40CE7590FF37
:010D4500228B
:100FCA00E50B70047D0280037D01E4FF120DB62259
:030EC200013502F5
:0B0FE700AE1CAF1D7C037DE802030080
:100EDA00C2B5C2B48F807F057E00120EA1D2B47F44
:090EEA00057E00120EA1C2B42223
:100EF300D2B5C2B48F807F057E00120EA1D2B47F1B
:090F0300057E00120EA1C2B42209
:050006007F01020EDA8B
:100F3800C2B47F38120EDA7F0C120EDA7F06120E58
:040F4800DA020006C3
:080B25008F1E8B1F8A2089211D
:100B2D00ED24FE600904700EE51E24808004E51E90
:100B3D0024C0FF120EDAE4F522F523AB1FAA20A97B
:100B4D0021120F23C3E5239FE5229E5024AB1FAA3C
:100B5D0020A9218523828522831202D3FF120EF351
:100B6D007F0A7E00120E830523E52370CE052280B9
:010B7D00CAAD
:010B7E002254
:100AC6008F1B8C1C8D1DEB24FE600904700EE51B2C
:100AD60024808004E51B24C0FF120EDA120FE7EF14
:100AE6002430FF120EF3120FE77F64120B0E7C0008
:100AF6007D641203007F0A120B0E7C007D0A12032E
:100B060000ED2430FF020EF37E00CFCDCFCECCCE4B
:0F0B1600120300EF2430FF120EF3AE1CAF1D22AE
:030EC500013300F6
:0B0FF20085A0325332F0E53264F0229B
:1004700075A0FE120FF2603A12055F603512057B1F
:100480002482601B24C0601224E0600924F07012F2
:10049000751A01800D751A028008751A038003759C
:1004A0001A04E53264F0600A12054F7F01120DB69E
:1004B00080F075A0FD120FF2603A12055F603512F0
:1004C000057B2483601B24C0601224E0600924F0B3
:1004D0007012751A05800D751A068008751A078046
:1004E00003751A08E53264F0600A12054F7F0112A5
:1004F0000DB680F075A0FB120FF260247F0A7E001B
:10050000120EA1E53264F0601785A0327D018009EA
:10051000E53264F0600A12056B7F01120DB680F0BF
:1005200075A0F7120FF260247F0A7E00120EA1E57B
:100530003264F0601785A0327D018009E53264F0F5
:0E054000600A12056B7F01120DB680F0AF1A33
:10054E002285A0325332F07F327E00120EA17D0240
:10055E00227F0A7E00120EA1E53264F02285A032BF
:10056E005332F07F327E00120EA17D022285A03220
:0A057E007D017F01120DB6E5322267
:1009E900120470EF14B408005065900A0175F00301
:1009F900A4C58325F0C58373020A19020A1C020AD9
:100A09001F020A22020A25020A33020A42020A4C7A
:100A1900020E11020FB9C2B722D2B722120F4CEF40
:100A29002509F509EE3508F50822120F4CC3E50929
:100A39009FF509E5089EF5082274F4250DF50D7456
:0F0A4900018008740C250DF50D74FE350CF50CAD
:010A5800227B
:030EC800012BFFFC
:030013000206439F
:10064300C0E0C0F0C083C082C0D075D000C000C07D
:0D06530001C002C003C004C005C006C007FE
:10066000751900E4FD7F01120FA77F0F120F5F3095
:10067000B302806720B3077F01120F5F80F6751702
:100680000075180020B3FD30B3FD30B3107F0112A8
:100690000F5F0519E519C3941E40EF803E742425B1
:1006A00017F8C000E6C313D000F6E519C39408405C
:1006B0000974242517F8E64480F67519000518E535
:1006C00018C3940840BE0517E517C3940440B2E56B
:1006D00027F465266002800385262B7D017F0112A9
:0206E0000FA762
:1006E200D007D006D005D004D003D002D001D0006C
:0B06F200D0D0D082D083D0F0D0E03216
:10058800751AFFE51A652B7003020642852B1A7D42
:10059800017F01120DB6E51A12036306180805F566
:1005A8000C05F10D05E71605F91805EC1906221CCE
:1005B80005D84005DD4505E24605CE4705D34A0680
:1005C800085E0000062E120C78805B12088C80569C
:1005D800120A598051120FDA804C120E38804712D5
:1005E8000E118042120FB9803DC2B78039D2B78050
:1005F80035120F4CEF2509F509EE3508F508802668
:10060800120F4CC3E5099FF509E5089EF508801609
:1006180074F4250DF50D74018008740C250DF50D85
:1006280074FE350CF50C751AFF752BFF7F327E00B2
:0A063800120EA17D027F01120DB623
:010642002295
:100D8100AE1BAF1CAB07AA06E4C39BFFE49AFE743B
:100D9100019400FDE49400FCE4FB7A01F9F8020CF3
:100DA100C7E4FDFF120F95D2B622AE0CAF0DAB0713
:050DB100AA06F9F8227A
:06101000EF24FF92AF2265
:03000E008F8922B5
:100F7100EF7006ED24FF928822BF0105ED24FF9258
:020F81008A22C2
:100F8300EF7006ED24FF92A922BF0105ED24FF9225
:020F9300AB228F
:100F9500EF7006ED24FF928C22BF0105ED24FF9230
:020FA5008E229A
:100FA700EF7006ED24FF92A822BF0105ED24FF9202
:020FB700AA226C
:060905008F1A8C1B8D1CF3
:10090B00EB14601D14602F14604024037048C3E483
:10091B00951CFF7401951BF51D8F1EF5838F82802F
:10092B0035C3E4951CFD7420951BF51E751D0075D4
:10093B0083008D828020120D818E1D8F1E120D81E2
:10094B00AE02AF038E838F82800C851B1D851C1E10
:10095B00851B83851C82E51A7007851E8C85828A10
:0C096B0022E51AB40106851E8D85828BE2
:01097700225D
:100BD7007F107E27FC120CC7EF24FFF512EE34FFBF
:020BE700F51106
:100BE900E510146015047036AC08AD09E412021959
:100BF9007BE47A38798E78418010AC08AD09E4122B
:100C090002197B167A7B79D6784212010EE4FBFA37
:0F0C1900798078BF12001D1202528E0E8F0F22AB
:100B7F007F0112000E7B027D327C001F1209057B64
:100B8F00037DFD7C007F011209057F011210107D8E
:100B9F00011F120F71120F831D120F950D120FA748
:100BAF000F120F95120F71120FA7E4F513F514F52D
:100BBF000CF50DF508F509F515F516120DAB1D120F
:080BCF000BD7E4F50BF50A2237
:100FB900120DA2E4F515F516850E13850F14F50B20
:010FC9002205
:100E1100E50D450C6020E5094508601AE4F515F576
:100E210016F513F514120DABFD120BD7750B017DE1
:070E310001E4FF120F9522FE
:03000B00020C28BC
:100C2800C0E0C0D075D000C005C007758CFF758ABC
:100C3800CEE516B51229E515B511247515007516FA
:100C480000B2B6E514B50F0FE513B50E0AE50A7044
:100C580006120DA3750B000514E5147002051305A3
:100C680016E51670020515D007D005D0D0D0E032B1
:03000300020810E0
:10081000C0E0C0F0C083C082C0D075D000C000C0AE
:1008200001C002C003C004C005C006C007E4FDFF4C
:10083000120FA720B2347F0A7E00120EA120B22A26
:100840007D017F01120DB6120DA2751500751600FF
:10085000850E13850F14750B0030B2FD7F327E00BC
:10086000120EA17D027F01120DB67D01E4FF120F71
:10087000A7D007D006D005D004D003D002D001D035
:0C08800000D0D0D082D083D0F0D0E03285
:0D0FDA00E50A70047F0180027F008F0A226B
:100E3800E51014601104701D7510017BFF7A0979A3
:100E4800977D02E4800BE4F5107BFF7A0979937DA6
:060E580002FF120B25222F
:100D4600D3E5099400E50894005002800BD3E50929
:100D5600940FE50894274005E4F508F509D3E50D59
:100D66009400E50C94005002800BD3E50D94A0E5A9
:0B0D76000C940F4005E4F50CF50D2275
:100978004D533A00576F726B0053746577004449C2
:10098800523A00506F73004E65670052413A005268
:100998004D3A0052533A00542E574B564552002DAB
:1009A8002D2D2D2D2D2D2D2D2D2D2D2D2D2D3E008B
:1009B8003C2F4D41545249583E00436F64652042D4
:1009C80079004E656F6420416E6465726A6F6E00CF
:1009D800537465704D6F746F72436F6E74726F6C81
:0109E800000E
:0E0ECB00012C00012D00022E0000023000005C
:0B0FFD007BFF7A0979D87D02E4FF2217
:100C7800120D0B1200067535017BFF7A09799F7DED
:100C8800017F05120B25120FFD120CB77A0979B8EE
:100C98007D017F04120CB77A0979C27D01E4FF1245
:100CA8000B257BFF7A0979CA7D027F03020B251287
:0F0CB8000B257FF47E01120EA11200067BFF2296
:10088C001200067535027BFF7A0979787D01E4FF49
:10089C00120B257A0979817F031208FD7A09798672
:1008AC007F091208FD7BFF7A09798B7D017F0D1280
:1008BC000B25E510600B1470157BFF7A0979978076
:1008CC00067BFF7A0979937D02E4FF120B257B02EC
:1008DC00AD09AC087F03120AC67BFF7A09799B7DB0
:1008EC00027F09120B257B02AD0DAC0C7F0C020AAA
:0908FC00C67BFF7D01120B2522D1
:100A5900E4F51CF51D120006753503E4F51BE51CCC
:100A6900B40705751D018006E51C7002F51DE51D1D
:100A79007004051C8002151CE51C90100893F59064
:100A89007BFF7A0979A77D01E4FF120B257BFF7AA9
:100A990009799F7D01AF1B120B25120FFD120B2542
:100AA900E52BB44009051BE51BC3941040B0E52BA9
:0C0AB900B440097F327E00120EA1809F25
:010AC500220E
:10078900E5356402600302080FE52C650B601A85E4
:100799000B2CE52C7BFF70067A09798180047A0994
:1007A900797C7D017F03120B25A2B7E433652D60A7
:1007B9001BA2B7E433F52D7BFF70067A09798B808C
:1007C900047A09798F7D017F0D120B25E52F6509C3
:1007D9007004E52E6508601185082E85092F7B02B6
:1007E900AD09AC087F03120AC6E531650D7004E551
:1007F90030650C6011850C30850D317B02AD31AC53
:06080900307F0C120AC64C
:01080F0022C6
:100F4C00E5101460030480067E007F0580047E009B
:020F5C007F1EF6
:010F5E002270
:100016000202BEE86480F8E933E83360110460F058
:10002600ED33EC337009E8FCE9FDEAFEEBFF220450
:1000360060DED3EB9FEA9EE99DE8C2E78CF0C2F74B
:1000460095F0400CE8CCF8E9CDF9EACEFAEBCFFB17
:1000560012028985D0F05804700320D5B3E80470E5
:10006600075002B2D50202C892D5EC0460F7E4CC80
:10007600C0E0C398F8603B94186008400DD0E0FBE0
:100086000202A0E4FBFAC9FC8028E830E406E4C9D1
:10009600FBE4CAFCE830E305E4C9CACBFCE8540734
:1000A6006010F8C3E913F9EA13FAEB13FBEC13FC3F
:1000B600D8F130F52FC3E49CFCEF9BFFEE9AFEEDE2
:1000C60099FDD0E0FBEF4E4D4C701222DB0302028D
:1000D600C5EC2CFCEF33FFEE33FEED33FDED30E7E0
:1000E600EB0202A0EF2BFFEE3AFEED39FDD0E0FB6E
:1000F60050130BBB00030202C8ED13FDEE13FEEF17
:0801060013FFEC13FC0202A040
:10010E00EC4D6011E8497017ED33EC3304600DE4EB
:10011E00FCFFFEFD22E933E8330470F80202BE1242
:10012E00028958046009E4CC248150062850090243
:10013E0002C82840030202C5C0E0EB4A7044B980F1
:10014E0006D0E0FB0202B4EF4E701CBD8008EBFF40
:10015E00EAFEE9FD80EBE98DF0A4FEE5F00201F781
:10016E00E9CDF9EAFEEBFFEF89F0A4FCE5F0CE89CC
:10017E00F0A42EFFE435F0CD89F0A42DFEE435F089
:10018E008067EF4E7005BD80D780C3EF8BF0A4ACB7
:10019E00F0EE8BF0A42CFCE435F0F8EF8AF0A42CF2
:1001AE00E5F038FCE433CB8DF0A42CFCE5F03BF805
:1001BE00EE8AF0A42CFCE5F038F8E433CF89F0A4F5
:1001CE002CFCE5F038CF3400CE89F0A42FFFE5F0FB
:1001DE003EFEE433C98DF0A42EFEE5F039CD8AF053
:1001EE00A42FFFE5F03EFEE43DFD33D0E0FB5007CB
:1001FE000BBB000F0202C8EC2CFCEF33FFEE33FEFC
:06020E00ED33FD0202A029
:1002140075F020800E75F010800575F0087D007E65
:10022400007F003392D530D503120355EC334010D0
:10023400EF33FFEE33FEED33FDEC33FCD5F0ED226E
:0E024400E5F0247EA2D513CC92E7CDCEFF22AA
:10025200EDD2E7CD33EC3392D524814006E4FFFEA4
:10026200FDFC22FCE4CFCECDCC24E0501174FF8003
:10027200EDC3CC13CCCD13CDCE13CECF13CF0470A0
:07028200F030D5DE02035548
:10028900E9D2E7C933E833F892D5EDD2E7CD33ECBB
:0702990033FC5002B2D52234
:1002A000EC30E7100FBF000C0EBE00080DBD0004BF
:1002B0000BEB6014A2D5EB13FCED92E7FD2274FF6B
:1002C000FCFDFEFF22E480F8A2D574FF13FC7D80C4
:0302D000E480EFD8
:030000000206FDF8
:0C06FD00787FE4F6D8FD758135020744D3
:1002D300BB010CE58229F582E5833AF583E02250E0
:1002E30006E92582F8E622BBFE06E92582F8E2222A
:0D02F300E58229F582E5833AF583E4932244
:10030000BC000BBE0029EF8DF084FFADF022E4CCE1
:10031000F875F008EF2FFFEE33FEEC33FCEE9DECAA
:10032000984005FCEE9DFE0FD5F0E9E4CEFD22EDF0
:10033000F8F5F0EE8420D21CFEADF075F008EF2F3A
:10034000FFED33FD4007985006D5F0F222C398FD2B
:050350000FD5F0EA22C8
:100CC700C2D5E830E70FB2D5E4C39BFBE49AFAE458
:100CD70099F9E498F8EC30E717B2D5120CFD120336
:100CE700DEE4C39BFBE49AFAE499F9E498F88003FD
:100CF7001203DE30D50DE4C39FFFE49EFEE49DFDA5
:040D0700E49CFC224A
:0E035500C3E49FFFE49EFEE49DFDE49CFC22B9
:10036300D083D082F8E4937012740193700DA3A329
:1003730093F8740193F5828883E47374029368603D
:06038300EFA3A3A380DF3D
:100F2300E4FFFE120389600C0FEF70010E09E970F4
:050F3300F20A80EF222C
:10070900020F0CE493A3F8E493A34003F68001F2EB
:1007190008DFF48029E493A3F85407240CC8C333F1
:10072900C4540F4420C8834004F456800146F6DFC0
:10073900E4800B0102040810204080900EBFE47E83
:10074900019360BCA3FF543F30E509541FFEE493B5
:10075900A360010ECF54C025E060A840B8E493A37C
:10076900FAE493A3F8E493A3C8C582C8CAC583CAA7
:10077900F0A3C8C582C8CAC583CADFE9DEE780BE5F
:010ED9000018
:10038900BB010689828A83E0225002E722BBFE0272
:09039900E32289828A83E49322A5
:1003A20075F008758200EF2FFFEE33FECD33CDCC12
:1003B20033CCC58233C5829BED9AEC99E582984095
:1003C2000CF582EE9BFEED9AFDEC99FC0FD5F0D672
:1003D200E4CEFBE4CDFAE4CCF9A88222B800C1B99C
:1003E2000059BA002DEC8BF084CFCECDFCE5F0CBDA
:1003F200F97818EF2FFFEE33FEED33FDEC33FCEB13
:1004020033FB10D703994004EB99FB0FD8E5E4F9CD
:10041200FA227818EF2FFFEE33FEED33FDEC33FCBA
:10042200C933C910D7059BE99A4007EC9BFCE99AAE
:10043200F90FD8E0E4C9FAE4CCFB2275F010EF2FF3
:10044200FFEE33FEED33FDCC33CCC833C810D707F3
:100452009BEC9AE899400AED9BFDEC9AFCE899F82E
:0E0462000FD5F0DAE4CDFBE4CCFAE4C8F922C1
:00000001FF
