:100E9400D2B6C2B77D02E4FF120DEC7D027F0112CF
:100EA4000DEC120BB5120F6E120CAE7FBC7E02124B
:050EB4000ED70209A0A9
:100F4200120E94120E1D120A8C12058B120D7C12B7
:070F5200100012081E80EFE1
:100EB900D3EF9400EE940040147D0A7C00ED1D7080
:0D0EC900011CED4C70F7EF1F70E61E80E37A
:010ED60022F9
:100F9500AD071FED600BE4FEEEC3940D50F20E801D
:010FA500F754
:010FA6002228
:100ED700D3EF9400EE940040147D7D7C00ED1D70EF
:0D0EE700011CED4C70F7EF1F70E61E80E35C
:010EF40022DB
:08103E00FEFDFBF7EFDFBF7FB1
:030EF500013500C4
:100DEC00EF146018047029ED24FE600A14600A24C4
:100DFC0002701DC29022D29022B29022ED24FE608D
:100E0C000A14600A24027008C29122D29122B29173
:010E1C0022B3
:100E1D00E4F51A120E3A7F327E00120ED7120E3AF8
:0C0E2D00051AE51AC3940340EA7590FF13
:0E0E390022E4F5907F32FE120ED77590FF2254
:100D4100E4F51CF51BE51CB407057535018006E5C6
:100D51001C7002F535E5357004051C8002151CE593
:100D61001C90103E93F5907F327E00120ED7051B2A
:0A0D7100E51BC3940E40CE7590FF01
:010D7B002255
:10100000E50B70047D0280037D01E4FF120DEC22EC
:030EF800013602BE
:0B101D00AE1CAF1D7C037DE802030049
:100F1000C2B5C2B48F807F057E00120ED7D2B47FD7
:090F2000057E00120ED7C2B422B6
:100F2900D2B5C2B48F807F057E00120ED7D2B47FAE
:090F3900057E00120ED7C2B4229D
:050006007F01020F1054
:100F6E00C2B47F38120F107F0C120F107F06120FB3
:040F7E001002000657
:080B5B008F1F8B208A218922E3
:100B6300ED24FE600904700EE51F24808004E51F58
:100B730024C0FF120F10E4F523F524AB20AA21A90A
:100B830022120F59C3E5249FE5239E5024AB20AACC
:100B930021A9228524828523831202D3FF120F29E0
:100BA3007F0A7E00120EB90524E52470CE0523804A
:010BB300CA77
:010BB400221E
:100AFC008F1B8C1C8D1DEB24FE600904700EE51BF6
:100B0C0024808004E51B24C0FF120F1012101DEF6F
:100B1C002430FF120F2912101D7F64120B447C002D
:100B2C007D641203007F0A120B447C007D0A1203C1
:100B3C0000ED2430FF020F297E00CFCDCFCECCCEDE
:0F0B4C00120300EF2430FF120F29AE1CAF1D2241
:030EFB00013400BF
:0B10280085A0335333F0E53364F02261
:1004700075A0FE121028603A120562603512057EE2
:100480002482601B24C0601224E0600924F07012F2
:10049000751A01800D751A028008751A038003759C
:1004A0001A04E53364F0600A1205527F01120DEC64
:1004B00080F075A0FD121028603A120562603512B6
:1004C000057E2483601B24C0601224E0600924F0B0
:1004D0007012751A05800D751A068008751A078046
:1004E00003751A08E53364F0600A1205527F0112A1
:1004F0000DEC80F075A0FB12102860247F0A7E00AE
:10050000120ED7E53364F0601785A0337D018009B2
:10051000E53364F0600A12056E7F01120DEC80F085
:1005200075A0F712102860247F0A7E00120ED7E50E
:100530003364F0601785A0337D018009E53364F0F2
:10054000600A12056E7F01120DEC80F0851A34AF3F
:010550001A90
:100551002285A0335333F07F327E00120ED77D0205
:10056100227F0A7E00120ED7E53364F02285A03384
:100571005333F07F327E00120ED77D022285A033E5
:0A0581007D017F01120DECE533222D
:100A8C00120470EF14B408005065900AA475F003BA
:100A9C00A4C58325F0C58373020ABC020ABF020AEF
:100AAC00C2020AC5020AC8020AD6020AE5020AEF05
:100ABC00020E47020FEFC2B722D2B722120F82EFFB
:100ACC002509F509EE3508F50822120F82C3E50950
:100ADC009FF509E5089EF5082274F4250DF50D74B3
:0F0AEC00018008740C250DF50D74FE350CF50C0A
:010AFB0022D8
:030EFE00012CFFC5
:030013000206469C
:10064600C0E0C0F0C083C082C0D075D000C000C07A
:0D06560001C002C003C004C005C006C007FB
:10066300751900E4FD7F01120FDD7F0F120F953026
:10067300B302806720B3077F01120F9580F67517C9
:100683000075180020B3FD30B3FD30B3107F0112A5
:100693000F950519E519C3941E40EF803E74252577
:1006A30017F8C000E6C313D000F6E519C394084059
:1006B3000974252517F8E64480F67519000518E531
:1006C30018C3940840BE0517E517C3940440B2E568
:1006D30028F465276002800385272C7D017F0112A2
:0206E3000FDD29
:1006E500D007D006D005D004D003D002D001D00069
:0B06F500D0D0D082D083D0F0D0E03213
:10058B00751AFFE51A652C7003020645852C1A7D3A
:10059B00017F01120DECE51A120363061B0805F827
:1005AB000C05F40D05EA1605FC1805EF1906251CBC
:1005BB0005DB4005E04505E54605D14705D64A066E
:1005CB000B5E00000631120CAE805B1209A0805648
:1005DB001207008051121010804C120E6E804712C1
:1005EB000E478042120FEF803DC2B78039D2B780E1
:1005FB0035120F82EF2509F509EE3508F50880262F
:10060B00120F82C3E5099FF509E5089EF5088016D0
:10061B0074F4250DF50D74018008740C250DF50D82
:10062B0074FE350CF50C751AFF752CFF7F327E00AE
:0A063B00120ED77D027F01120DECB4
:010645002292
:100DB700AE1BAF1CAB07AA06E4C39BFFE49AFE7405
:100DC700019400FDE49400FCE4FB7A01F9F8020CBD
:100DD700FDE4FDFF120FCBD2B622AE0CAF0DAB0771
:050DE700AA06F9F82244
:06104600EF24FF92AF222F
:03000E008F8922B5
:100FA700EF7006ED24FF928822BF0105ED24FF9222
:020FB7008A228C
:100FB900EF7006ED24FF92A922BF0105ED24FF92EF
:020FC900AB2259
:100FCB00EF7006ED24FF928C22BF0105ED24FF92FA
:020FDB008E2264
:100FDD00EF7006ED24FF92A822BF0105ED24FF92CC
:020FED00AA2236
:060A19008F1A8C1B8D1CDE
:100A1F00EB14601D14602F14604024037048C3E46E
:100A2F00951CFF7401951BF51D8F1EF5838F82801A
:100A3F0035C3E4951CFD7420951BF51E751D0075BF
:100A4F0083008D828020120DB78E1D8F1E120DB761
:100A5F00AE02AF038E838F82800C851B1D851C1EFB
:100A6F00851B83851C82E51A7007851E8C85828AFB
:0C0A7F0022E51AB40106851E8D85828BCD
:010A8B002248
:100C0D007F107E27FC120CFDEF24FFF512EE34FF52
:020C1D00F511CF
:100C1F00E510146015047036AC08AD09E412021922
:100C2F007BE47A38798E78418010AC08AD09E412F4
:100C3F0002197B167A7B79D6784212010EE4FBFA01
:0F0C4F00798078BF12001D1202528E0E8F0F2275
:100BB5007F0112000E7B027D327C001F120A197B19
:100BC500037DFD7C007F01120A197F011210467D0D
:100BD500011F120FA7120FB91D120FCB0D120FDD3A
:100BE5000F120FCB120FA7120FDDE4F513F514F555
:100BF5000CF50DF508F509F515F516120DE11D12A3
:080C05000C0DE4F50BF50A22C9
:100FEF00120DD8E4F515F516850E13850F14F50BB4
:010FFF0022CF
:100E4700E50D450C6020E5094508601AE4F515F540
:100E570016F513F514120DE1FD120C0D750B017D3E
:070E670001E4FF120FCB2292
:03000B00020C5E86
:100C5E00C0E0C0D075D000C005C007758CFF758A86
:100C6E00CEE516B51229E515B511247515007516C4
:100C7E0000B2B6E514B50F0FE513B50E0AE50A700E
:100C8E0006120DD9750B000514E514700205130537
:100C9E0016E51670020515D007D005D0D0D0E0327B
:03000300020924CB
:10092400C0E0C0F0C083C082C0D075D000C000C099
:1009340001C002C003C004C005C006C007E4FDFF37
:10094400120FDD20B2347F0A7E00120ED720B22AA5
:100954007D017F01120DEC120DD87515007516007E
:10096400850E13850F14750B0030B2FD7F327E00A7
:10097400120ED77D027F01120DEC7D01E4FF120FF0
:10098400DDD007D006D005D004D003D002D001D0EA
:0C09940000D0D0D082D083D0F0D0E03270
:0D101000E50A70047F0180027F008F0A2234
:100E6E00E51014601104701D7510017BFF7A08796E
:100E7E00C47D02E4800BE4F5107BFF7A0879C07D17
:060E8E0002FF120B5B22C3
:100D7C00D3E5099400E50894005002800BD3E509F3
:100D8C00940FE50894274005E4F508F509D3E50D23
:100D9C009400E50C94005002800BD3E50D94A0E573
:0B0DAC000C940F4005E4F50CF50D223F
:1008A5004D533A00576F726B005374657700444996
:1008B500523A00506F73004E65670052413A00523C
:1008C5004D3A0052533A002020202020202020209D
:1008D5002020202020202000542E574B5645520022
:1008E5003C2F4D41545249583E00436F64652042A8
:1008F50079004E656F6420416E6465726A6F6E00A3
:10090500537465704D6F746F72436F6E74726F6C54
:0F091500005072657373204E6577204B65790033
:0E0F0100012D00012E00022F00000231000021
:0B1033007BFF7A0979057D02E4FF22B3
:100CAE00120D411200067536017BFF7A0879DD7D43
:100CBE00017F05120B5B121033120CED7A0879E5E9
:100CCE007D017F04120CED7A0879EF7D01E4FF12AD
:100CDE000B5B7BFF7A0879F77D027F03020B5B12B9
:0F0CEE000B5B7FF47E01120ED71200067BFF22F4
:1009A0001200067536027BFF7A0879A57D01E4FF07
:1009B000120B5B7A0879AE7F03120A117A0879B3B9
:1009C0007F09120A117BFF7A0879B87D017F0D1229
:1009D0000B5BE510600B1470157BFF7A0879C480FF
:1009E000067BFF7A0879C07D02E4FF120B5B7B0275
:1009F000AD09AC087F03120AFC7BFF7A0879C87D39
:100A0000027F09120B5B7B02AD0DAC0C7F0C020A5E
:090A1000FC7BFF7D01120B5B224F
:10070000E4F51BF51CF51DF51E120006753603E514
:100710001CB40705751D018006E51C7002F51DE57A
:100720001D7004051C8002151CE51C90103E93F5FD
:1007300090E51BB40905751E018006E51B7002F5E6
:100740001E120784E51E7004051B8002151BAF1BDB
:100750007BFF7A0879DD7D01120B5B121033120BDF
:100760005BE52C644060137590FF1207847BFF7A71
:100770000979167D017F01020B5B7F967E00120EC8
:04078000D702070F86
:0E0784007BFF7A0879CC7D01E4FF120B5B222B
:10081E00E536640260030208A4E52D650B601A85B7
:10082E000B2DE52D7BFF70067A0879AE80047A08D1
:10083E0079A97D017F03120B5BA2B7E433652E60AD
:10084E001BA2B7E433F52E7BFF70067A0879B880C9
:10085E00047A0879BC7D017F0D120B5BE5306509CA
:10086E007004E52F6508601185082F8509307B021D
:10087E00AD09AC087F03120AFCE532650D7004E584
:10088E0031650C6011850C31850D327B02AD32ACB9
:06089E00317F0C120AFC80
:0108A4002231
:100F8200E5101460030480067E007F0580047E0065
:020F92007F1EC0
:010F9400223A
:100016000202BEE86480F8E933E83360110460F058
:10002600ED33EC337009E8FCE9FDEAFEEBFF220450
:1000360060DED3EB9FEA9EE99DE8C2E78CF0C2F74B
:1000460095F0400CE8CCF8E9CDF9EACEFAEBCFFB17
:1000560012028985D0F05804700320D5B3E80470E5
:10006600075002B2D50202C892D5EC0460F7E4CC80
:10007600C0E0C398F8603B94186008400DD0E0FBE0
:100086000202A0E4FBFAC9FC8028E830E406E4C9D1
:10009600FBE4CAFCE830E305E4C9CACBFCE8540734
:1000A6006010F8C3E913F9EA13FAEB13FBEC13FC3F
:1000B600D8F130F52FC3E49CFCEF9BFFEE9AFEEDE2
:1000C60099FDD0E0FBEF4E4D4C701222DB0302028D
:1000D600C5EC2CFCEF33FFEE33FEED33FDED30E7E0
:1000E600EB0202A0EF2BFFEE3AFEED39FDD0E0FB6E
:1000F60050130BBB00030202C8ED13FDEE13FEEF17
:0801060013FFEC13FC0202A040
:10010E00EC4D6011E8497017ED33EC3304600DE4EB
:10011E00FCFFFEFD22E933E8330470F80202BE1242
:10012E00028958046009E4CC248150062850090243
:10013E0002C82840030202C5C0E0EB4A7044B980F1
:10014E0006D0E0FB0202B4EF4E701CBD8008EBFF40
:10015E00EAFEE9FD80EBE98DF0A4FEE5F00201F781
:10016E00E9CDF9EAFEEBFFEF89F0A4FCE5F0CE89CC
:10017E00F0A42EFFE435F0CD89F0A42DFEE435F089
:10018E008067EF4E7005BD80D780C3EF8BF0A4ACB7
:10019E00F0EE8BF0A42CFCE435F0F8EF8AF0A42CF2
:1001AE00E5F038FCE433CB8DF0A42CFCE5F03BF805
:1001BE00EE8AF0A42CFCE5F038F8E433CF89F0A4F5
:1001CE002CFCE5F038CF3400CE89F0A42FFFE5F0FB
:1001DE003EFEE433C98DF0A42EFEE5F039CD8AF053
:1001EE00A42FFFE5F03EFEE43DFD33D0E0FB5007CB
:1001FE000BBB000F0202C8EC2CFCEF33FFEE33FEFC
:06020E00ED33FD0202A029
:1002140075F020800E75F010800575F0087D007E65
:10022400007F003392D530D503120355EC334010D0
:10023400EF33FFEE33FEED33FDEC33FCD5F0ED226E
:0E024400E5F0247EA2D513CC92E7CDCEFF22AA
:10025200EDD2E7CD33EC3392D524814006E4FFFEA4
:10026200FDFC22FCE4CFCECDCC24E0501174FF8003
:10027200EDC3CC13CCCD13CDCE13CECF13CF0470A0
:07028200F030D5DE02035548
:10028900E9D2E7C933E833F892D5EDD2E7CD33ECBB
:0702990033FC5002B2D52234
:1002A000EC30E7100FBF000C0EBE00080DBD0004BF
:1002B0000BEB6014A2D5EB13FCED92E7FD2274FF6B
:1002C000FCFDFEFF22E480F8A2D574FF13FC7D80C4
:0302D000E480EFD8
:0300000002079262
:0C079200787FE4F6D8FD7581360207D9A7
:1002D300BB010CE58229F582E5833AF583E02250E0
:1002E30006E92582F8E622BBFE06E92582F8E2222A
:0D02F300E58229F582E5833AF583E4932244
:10030000BC000BBE0029EF8DF084FFADF022E4CCE1
:10031000F875F008EF2FFFEE33FEEC33FCEE9DECAA
:10032000984005FCEE9DFE0FD5F0E9E4CEFD22EDF0
:10033000F8F5F0EE8420D21CFEADF075F008EF2F3A
:10034000FFED33FD4007985006D5F0F222C398FD2B
:050350000FD5F0EA22C8
:100CFD00C2D5E830E70FB2D5E4C39BFBE49AFAE422
:100D0D0099F9E498F8EC30E717B2D5120D331203C8
:100D1D00DEE4C39BFBE49AFAE499F9E498F88003C6
:100D2D001203DE30D50DE4C39FFFE49EFEE49DFD6E
:040D3D00E49CFC2214
:0E035500C3E49FFFE49EFEE49DFDE49CFC22B9
:10036300D083D082F8E4937012740193700DA3A329
:1003730093F8740193F5828883E47374029368603D
:06038300EFA3A3A380DF3D
:100F5900E4FFFE120389600C0FEF70010E09E970BE
:050F6900F20A80EF22F6
:10079E00020F42E493A3F8E493A34003F68001F220
:1007AE0008DFF48029E493A3F85407240CC8C3335C
:1007BE00C4540F4420C8834004F456800146F6DF2B
:1007CE00E4800B0102040810204080900EF5E47EB8
:1007DE00019360BCA3FF543F30E509541FFEE49320
:1007EE00A360010ECF54C025E060A840B8E493A3E7
:1007FE00FAE493A3F8E493A3C8C582C8CAC583CA12
:10080E00F0A3C8C582C8CAC583CADFE9DEE780BEC9
:010F0F0000E1
:10038900BB010689828A83E0225002E722BBFE0272
:09039900E32289828A83E49322A5
:1003A20075F008758200EF2FFFEE33FECD33CDCC12
:1003B20033CCC58233C5829BED9AEC99E582984095
:1003C2000CF582EE9BFEED9AFDEC99FC0FD5F0D672
:1003D200E4CEFBE4CDFAE4CCF9A88222B800C1B99C
:1003E2000059BA002DEC8BF084CFCECDFCE5F0CBDA
:1003F200F97818EF2FFFEE33FEED33FDEC33FCEB13
:1004020033FB10D703994004EB99FB0FD8E5E4F9CD
:10041200FA227818EF2FFFEE33FEED33FDEC33FCBA
:10042200C933C910D7059BE99A4007EC9BFCE99AAE
:10043200F90FD8E0E4C9FAE4CCFB2275F010EF2FF3
:10044200FFEE33FEED33FDCC33CCC833C810D707F3
:100452009BEC9AE899400AED9BFDEC9AFCE899F82E
:0E0462000FD5F0DAE4CDFBE4CCFAE4C8F922C1
:00000001FF
